:020000040800F2
:1000000000000820451E0008390500083B050008CF
:100010003D0500083F0500084105000800000000FC
:100020000000000000000000000000004305000880
:1000300045050008000000004705000849050008C4
:10004000951E0008951E0008951E0008951E0008C4
:10005000951E0008951E0008951E0008951E0008B4
:10006000951E0008951E0008951E0008951E0008A4
:10007000951E0008951E0008951E0008951E000894
:10008000951E0008951E0008951E0008951E000884
:10009000951E0008951E0008951E0008951E000874
:1000A000951E0008951E0008951E0008951E000864
:1000B000951E0008951E0008951E0008951E000854
:1000C000951E0008951E0008951E0008951E000844
:1000D000951E0008951E0008951E0008951E000834
:1000E000951E0008951E0008951E0008951E000824
:1000F000951E0008951E0008951E0008951E000814
:10010000951E0008951E0008951E0008951E000803
:10011000951E0008951E0008951E0008951E0008F3
:10012000951E0008951E0008951E0008951E0008E3
:10013000951E0008951E0008951E0008951E0008D3
:10014000951E0008951E0008951E0008951E0008C3
:10015000951E0008951E0008951E0008951E0008B3
:10016000951E0008951E0008951E0008951E0008A3
:10017000951E0008951E0008951E0008000000004E
:10018000951E0008951E0008951E0008951E000883
:10019000951E0008951E0008951E0008951E000873
:1001A0000000000000000000951E0008951E0008D9
:1001B000951E0008951E0008951E0008951E000853
:1001C000951E0008951E000800000000951E0008FE
:1001D000951E0008951E0008951E0008951E000833
:1001E000951E0008951E0008951E0008951E000823
:0801F00000000000951E00084C
:1001F80010B5054C237833B9044B13B10448AFF359
:1002080000800123237010BD0C00002000000000B6
:10021800E01E000808B5034B1BB103490348AFF3C0
:10022800008008BD0000000010000020E01E00084B
:1002380053B94AB9002908BF00281CBF4FF0FF3145
:100248004FF0FF3000F072B9ADF1080C6DE904CE43
:1002580000F006F8DDF804E0DDE9022304B0704799
:100268002DE9F047089E04468846002B4BD18A4268
:10027800154667D9B2FA82F24AB1C2F1200701FAEB
:1002880002F320FA07F7954047EA030894404FEA3B
:10029800154E230CB8FBFEF71FFA85FC0EFB1788DA
:1002A80043EA084307FB0CF1994209D9EB1807F117
:1002B800FF3080F01B81994240F21881023F2B44A5
:1002C8005B1AA4B2B3FBFEF00EFB103344EA0344FE
:1002D80000FB0CFCA44509D92C1900F1FF3380F070
:1002E8000781A44540F2048102382C4440EA0740C3
:1002F800A4EB0C0400271EB1D4400023C6E9004338
:100308003946BDE8F0878B4209D9002E00F0EB8012
:100318000027C6E9000138463946BDE8F087B3FA38
:1003280083F7002F47D18B4202D3824200F2FA8032
:10033800841A61EB030301209846002EE0D0C6E939
:100348000048DDE702B9FFDEB2FA82F2002A40F087
:100358008F80491B4FEA154E1FFA85F80127B1FB1C
:10036800FEFC230C0EFB1C1143EA014308FB0CF1B5
:10037800994207D9EB180CF1FF3002D2994200F2EA
:10038800CD808446591AA3B2B1FBFEF00EFB1014BF
:1003980043EA044408FB00F8A04507D92C1900F1EA
:1003A800FF3302D2A04500F2B6801846A4EB080439
:1003B80040EA0C409FE7C7F1200CBB4022FA0CFE34
:1003C8004EEA030E01FA07F420FA0CF521FA0CF3B1
:1003D8004FEA1E482543B3FBF8F92C0C08FB1933E8
:1003E8001FFA8EFA44EA034309FB0AF49C4202FA14
:1003F80007F200FA07F10BD91EEB030309F1FF30EE
:1004080080F087809C4240F28480A9F102097344FD
:100418001B1BADB2B3FBF8F008FB103345EA0344ED
:1004280000FB0AFAA24508D91EEB040400F1FF33C9
:100438006BD2A24569D90238744440EA0940A0FB4E
:100448000289A4EB0A044C45C2464B4654D351D00A
:10045800002E69D0B1EB0A0564EB030404FA0CFC26
:10046800FD40FC404CEA0505C6E90054002747E773
:10047800C2F1200320FA03F7954001FA02F021FAAD
:1004880003F34FEA154E3843010CB3FBFEF71FFA8E
:1004980085F80EFB173341EA034107FB08F38B424B
:1004A80004FA02F407D9691807F1FF3C2FD28B42EE
:1004B8002DD9023F2944CB1A81B2B3FBFEF00EFBC3
:1004C800103341EA034100FB08F38B4207D969184E
:1004D80000F1FF3C17D28B4215D902382944C91ABA
:1004E80040EA07473BE73746304609E70746E7E66D
:1004F8001846FBE64145ABD2B8EB020A69EB0E029F
:1005080001381346A4E76046E9E7184695E76746C9
:10051800D1E781467CE702382C4447E7ACF1020C6E
:100528002B442FE7384608E73746E9E6704700BF0F
:100538007047FEE7FEE7FEE7FEE770477047704743
:1005480008B501F031F900F06CF808BD0649CB6830
:1005580023F4E0631B041B0C000200F4E060034377
:10056800024A1A43CA60704700ED00E00000FA052D
:1005780030B4154BDB68C3F30223C3F10704042C22
:1005880028BF04241D1D062D14D9033B4FF0FF3549
:1005980005FA04F421EA0401994005FA03F322EA72
:1005A80003031943002807DB0901C9B2074B195493
:1005B80030BC70470023E9E700F00F000901C9B219
:1005C800034B1954F4E700BF00ED00E000E400E03D
:1005D80014ED00E00138B0F1807F0AD2064B586074
:1005E800064AF02182F823100020986007221A603A
:1005F80070470120704700BF10E000E000ED00E008
:10060800042805D0054A136823F0040313607047D3
:10061800024A136843F004031360704710E000E0D7
:10062800704708B5FFF7FCFF08BD000082B00A4B11
:100638001A6B42F080021A631A6B02F08002009271
:10064800009A1A6B42F002021A631B6B03F0020352
:100658000193019B02B07047003802400346002016
:1006680001E0013013465A1C1B78002BF9D1704762
:10067800FEE7000008B50C480C4B03604FF4E1336B
:10068800436000238360C36003610C22426183617D
:10069800C3610362436200F0C6FB00B908BDE421F0
:1006A8000348FFF7E5FF00BF2800002000100140C5
:1006B800041F000800B5B9B0334B1A6C42F08052E1
:1006C8001A641B6C03F080530093009B2F4B1A682D
:1006D80042F440421A601B6803F440430193019BB3
:1006E80001232B934FF480332C93022331934FF43F
:1006F8008002329208223392C8223492359336937C
:100708002BA800F0F7FC78BB00F0C0FB80BB0F23E0
:10071800269302232793002328934FF4A053299369
:100728004FF480532A93062126A800F033FF18BB04
:10073800402302930023139302A801F0A1F8F8B90B
:1007480000F0DAFF124BA3FB00308009FFF742FFED
:100758000420FFF755FF002211464FF0FF30FFF746
:1007680007FF39B05DF804FBA9210A48FFF780FFAD
:10077800B0210848FFF77CFFBE210648FFF778FF45
:10078800C5210448FFF774FF00380240007000409C
:10079800D34D6210041F000810B586B000F0F8FFB2
:1007A800FFF788FFFFF742FFFFF764FF1D4B1A6B47
:1007B80042F040021A631B6B03F040030093009B56
:1007C8004FF480630193012302930223039304935C
:1007D80001A9154800F098FB11E001339BB2B3F56D
:1007E8007A7FFAD300224FF480610F4800F07CFC36
:1007F800002301E001339BB2B3F57A7FFAD30B4CA7
:100808002046FFF72BFF642382B22146084800F0F8
:100818006AF801224FF48061034800F065FC002368
:10082800DDE700BF0038024000180240F81E00084B
:100838002800002010B40F4AD2F8883043F470031F
:10084800C2F888300C4B196841F00101196000208A
:1008580098601C680949214019600949596019685C
:1008680021F480211960D8604FF0006393605DF82F
:10087800044B704700ED00E000380240FFFFF6FE31
:10088800103000242DE9F04105460F4616469846DB
:10089800069C2B68DB6937EA03030CBF012300239E
:1008A800B3421DD1B4F1FF3FF3D02CB100F088FF63
:1008B800A0EB0800A042ECD32A68136823F4D07395
:1008C80013602A68936823F001039360202385F856
:1008D800693085F86A30002385F86830032000E025
:1008E8000020BDE8F0812DE9F04182B01E4690F865
:1008F8006930DBB2202B52D104460D469046B2FA3D
:1009080082F35B09002908BF0123002B4CD190F822
:100918006830012B4AD0012380F868300023C36671
:10092800212380F8693000F04BFF0746A4F8508077
:10093800A4F8528003E02A7823689A620135B4F853
:1009480052309BB2DBB1B4F85230013B9BB2A4F8F1
:10095800523000963B46002280212046FFF792FF46
:1009680030BBA368B3F5805FE5D12369002BE2D1E2
:1009780035F8023B2268C3F308039362DFE7009669
:100988003B46002240212046FFF77CFF034688B9FA
:10099800202284F86920002284F8682000E00223DD
:1009A800184602B0BDE8F0810123F9E70223F7E712
:1009B8000323F5E70323F3E710B5044683680269C8
:1009C800134342691343C2691343016808689D4A87
:1009D800024013430B602268536823F44053E168D4
:1009E8000B435360A369226A1A4321688B6823F476
:1009F800306313438B602368934A934219D0934A18
:100A080093422AD0924A934240D0924A934255D078
:100A1800914A93426AD0914A934200F08280904A68
:100A2800934200F099808F4A934200F0B0801022E0
:100A3800C9E002F59432D2F8902002F00302032AAA
:100A480003D8DFE802F0BF0604081022BBE0022248
:100A5800B9E00422B7E00822B5E002F5FA32D2F88C
:100A6800902002F00C020C2A08D8DFE802F0BA073E
:100A780007070B070707090707070D001022A2E061
:100A88000222A0E004229EE008229CE002F5F8324F
:100A9800D2F8902002F03002102A0DD005D9202A71
:100AA80008D0302A04D108228DE00AB900228AE051
:100AB800102288E0022286E0042284E002F5F63261
:100AC800D2F8902002F0C002402A0DD005D9802A21
:100AD80008D0C02A04D1082275E00AB9002272E0C1
:100AE800102270E002226EE004226CE002F5F4327B
:100AF800D2F8902002F44072B2F5807F0FD007D967
:100B0800B2F5007F09D0B2F5407F04D108225AE03F
:100B18000AB9002257E0102255E0022253E00422CD
:100B280051E002F59232D2F8902002F44062B2F518
:100B3800806F0FD007D9B2F5006F09D0B2F5406FBA
:100B480004D108223FE00AB901223CE010223AE031
:100B5800022238E0042236E002F5E032D2F8902092
:100B680002F44052B2F5805F0FD007D9B2F5005FAA
:100B780009D0B2F5405F04D1082224E00AB9002266
:100B880021E010221FE002221DE004221BE002F5F2
:100B9800DE32D2F8902002F44042B2F5804F0FD0F6
:100BA80007D9B2F5004F09D0B2F5404F04D1082259
:100BB80009E00AB9002206E0102204E0022202E05D
:100BC800042200E00122E169B1F5004F0BD0082AA8
:100BD80000F29B80DFE802F0616D79998399999919
:100BE8008F000022EFE7082A54D8DFE802F0051743
:100BF80022533F5353534A0000F084FD6268530860
:100C080003EB4003B3FBF2F39BB2002023F00F0287
:100C1800C3F3420313432268D36010BD00F082FD82
:100C28006268530803EB4003B3FBF2F39BB2002066
:100C3800ECE762680C4B03EB5203B3FBF2F39BB295
:100C48000020E3E7F369FFEF001001400044004093
:100C580000480040004C0040005000400014014093
:100C680000780040007C00400048E80100F02CFCBF
:100C78006268530803EB4003B3FBF2F39BB2002016
:100C8800C4E76268530803F58033B3FBF2F39BB201
:100C98000020BBE701200023B8E700F033FD6368BC
:100CA80000EB5300B0FBF3F0236880B2D86000205B
:100CB800B3E700F037FD636800EB5300B0FBF3F0D7
:100CC800236880B2D8600020A7E76168104A02EB69
:100CD8005102B2FBF1F292B2DA6000209DE700F017
:100CE800F3FB636800EB5300B0FBF3F0236880B2BA
:100CF800D860002091E761684A0802F50042B2FB1B
:100D0800F1F292B2DA60002087E7012085E700BFA0
:100D18000024F400436A13F0010F06D002685368F8
:100D280023F40033816A0B435360436A13F0020FC4
:100D380006D00268536823F48033C16A0B435360BA
:100D4800436A13F0040F06D00268536823F4802323
:100D5800016B0B435360436A13F0080F06D0026817
:100D6800536823F40043416B0B435360436A13F009
:100D7800100F06D00268936823F48053816B0B43ED
:100D88009360436A13F0200F06D00268936823F437
:100D98000053C16B0B439360436A13F0400F0AD0B2
:100DA8000268536823F48013016C0B435360036C8F
:100DB800B3F5801F0BD0436A13F0800F06D002688A
:100DC800536823F40023816C0B4353607047026817
:100DD800536823F4C003416C0B435360EBE710B531
:100DE80082B004460023C36600F0EAFC2268126859
:100DF80012F0080F09D1202384F8693084F86A308A
:100E0800002084F8680002B010BD6FF07E430093A4
:100E1800034600224FF400112046FFF733FD002857
:100E2800E9D00320EFE778B310B5044690F86930AD
:100E38000BB3242384F869302268136823F0010374
:100E480013602046FFF7B8FD012813D0636ABBB9C9
:100E58002268536823F4904353602268936823F010
:100E68002A0393602268136843F001031360204645
:100E7800FFF7B5FF10BD80F8683000F0D7FCD8E761
:100E88002046FFF747FFE3E70120704710B582B01F
:100E98001B4B1A6C42F080521A641B6C03F080538F
:100EA8000193019B174A136843F48033136000F0E1
:100EB80087FC0446134B5B6813F4803F08D100F0AD
:100EC8007FFC001BB0F57A7FF4D9032002B010BD77
:100ED8000C4A136843F40033136000F071FC0446B5
:100EE800084B5B6813F4003F07D100F069FC001B56
:100EF800B0F57A7FF4D90320E8E70020E6E700BFE1
:100F0800003802400070004000230F2B00F2E280FE
:100F1800F0B482B039E0092200E00022B2403A433E
:100F280002346D4E46F824206C4A1468EA4302EAFB
:100F380004064F6817F4803F01D045EA0406674C61
:100F48002660646802EA04064F6817F4003F01D07F
:100F580045EA0406614C6660A46802EA04064F6824
:100F680017F4801F01D045EA04065C4CA660E468CB
:100F780022404E6816F4001F01D045EA0402574C7F
:100F8800E26001330F2B00F2A28001229A400C6824
:100F980004EA0205AA42F4D14C68122C18BF022CAC
:100FA80010D1DE08083650F826C003F00704A70061
:100FB8000F24BC402CEA040C0C69BC4044EA0C0425
:100FC80040F8264004685F000326BE40F64306EA60
:100FD800040C4C6804F00304BC4044EA0C040460AC
:100FE8004C6804F1FF3C112C18BFBCF1010F01D96A
:100FF800122C11D1846806EA040CCC68BC4044EA7F
:101008000C048460446824EA020C4C68C4F300129F
:101018009A4042EA0C024260C26816408A68BA40A6
:101028003243C2604A6812F0805FAAD02C4A546CDE
:1010380044F480445464526C02F480420192019A50
:101048009C08A61C244A52F8267003F00302960056
:101058000F22B24027EA0207224A90423FF45DAFCE
:1010680002F58062904222D002F58062904220D040
:1010780002F5806290421ED002F5806290421CD038
:1010880002F5806290421AD002F58062904218D030
:1010980002F58062904216D002F58062904214D028
:1010A80002F5806290423FF436AF0A2236E7012209
:1010B80034E7022232E7032230E704222EE7052232
:1010C8002CE706222AE7072228E7082226E702B0AB
:1010D800F0BC7047704700BF00380140003C014039
:1010E800003802400000024012B9090481617047CB
:1010F80081617047002800F0DC8170B582B0044639
:10110800036813F0010F29D0A24B9B6803F00C036E
:10111800042B1AD09F4B9B6803F00C03082B0FD0AD
:101128006368B3F5803F40D0002B54D1994B1A68BF
:1011380022F480321A601A6822F480221A6039E098
:10114800944B5B6813F4800FEAD0924B1B6813F43E
:10115800003F03D06368002B00F0AD81236813F0D3
:10116800020F75D08B4B9B6813F00C0F5ED0894B28
:101178009B6803F00C03082B53D0E368002B00F0A6
:101188008A80844A136843F00103136000F018FB57
:101198000546804B1B6813F0020F73D100F010FB5B
:1011A800401B0228F5D9032088E17A4A136843F4E2
:1011B8008033136063682BB300F002FB0546754B60
:1011C8001B6813F4003FC9D100F0FAFA401B6428E9
:1011D800F5D9032072E1B3F5A02F09D06D4B1A6839
:1011E80022F480321A601A6822F480221A60E1E739
:1011F800684B1A6842F480221A601A6842F48032F6
:101208001A60D7E700F0DCFA0546624B1B6813F456
:10121800003FA3D000F0D4FA401B6428F5D903207E
:101228004CE15C4B5B6813F4800FA6D1594B1B68EB
:1012380013F0020F04D0E368012B01D001203DE137
:10124800544A136823F0F803216943EAC103136081
:10125800236813F0080F46D0636983B34D4A536F70
:1012680043F00103536700F0ABFA0546494B5B6F47
:1012780013F0020F37D100F0A3FA401B0228F5D96A
:1012880003201BE1434A136823F0F803216943EA6A
:10129800C1031360DCE73F4A136823F001031360BE
:1012A80000F08EFA05463B4B1B6813F0020FCFD0B7
:1012B80000F086FA401B0228F5D90320FEE0354AE3
:1012C800536F23F00103536700F07AFA0546314B58
:1012D8005B6F13F0020F06D000F072FA401B022871
:1012E800F5D90320EAE0236813F0040F7ED0294BD8
:1012F8001B6C13F0805F1ED1264B1A6C42F0805293
:101308001A641B6C03F080530193019B0125224B47
:101318001B6813F4807F10D0A368012B21D0002B09
:101328003CD11C4B1A6F22F001021A671A6F22F087
:1013380004021A671AE00025E9E7174A136843F41C
:101348008073136000F03CFA0646134B1B6813F4D5
:10135800807FE1D100F034FA801B6428F5D903209E
:10136800ACE00C4A136F43F001031367A3685BB347
:1013780000F026FA0646074B1B6F13F0020F34D114
:1013880000F01EFA801B41F288339842F3D90320FB
:1013980094E000BF0038024000700040052B09D0DF
:1013A800484B1A6F22F001021A671A6F22F00402E2
:1013B8001A67DBE7434B1A6F42F004021A671A6F89
:1013C80042F001021A67D1E700F0FAF906463D4BF0
:1013D8001B6F13F0020F08D000F0F2F9801B41F2E6
:1013E80088339842F3D9032068E0F5B9A369002B44
:1013F80063D0344A926802F00C02082A60D0022BAB
:1014080019D0304A136823F08073136000F0D8F9BC
:1014180004462C4B1B6813F0007F48D000F0D0F92D
:10142800001B0228F5D9032048E0264A136C23F054
:1014380080531364DAE7234A136823F08073136038
:1014480000F0BEF905461F4B1B6813F0007F06D05D
:1014580000F0B6F9401B0228F5D903202EE0E36915
:10146800226A1343626A43EA8213A26A5208013A63
:1014780043EA0243E26A43EA0263226B43EA0273E5
:10148800104A5360136843F08073136000F098F9B2
:1014980004460C4B1B6813F0007F06D100F090F94E
:1014A800001B0228F5D9032008E0002006E00020F0
:1014B80004E001207047012000E0002002B070BD68
:1014C8000120FBE700380240304B9B6803F00C0317
:1014D800082B58D12DE9F04B2C4B5A6802F03F02EB
:1014E8005B6813F4800F2BD0284B5B68C3F3881319
:1014F8001E4600275C010025E41A65EB0705A901D3
:1015080041EA9461A001001B61EB0501CB0043EAAD
:101518005073C400A01943EB07018B0243EA9053B0
:101528008402204619460023FEF782FE174B5B68AB
:10153800C3F3014301335B00B0FBF3F0BDE8F08B6C
:10154800124B5B68C3F388131E4600275C01002515
:10155800E41A65EB0705A90141EA9461A001001BA3
:1015680061EB0501CB0043EA5073C400A01943EBBB
:1015780007018B0243EA9053840220461946002350
:10158800FEF756FED2E70248704700BF0038024017
:101598000024F400002800F0A28070B50446524BE5
:1015A8001B6803F00F038B420CD24F4A136823F0D9
:1015B8000F030B431360136803F00F038B4201D032
:1015C800012070BD236813F0020F17D013F0040F29
:1015D80004D0464A936843F4E0539360236813F0B9
:1015E800080F04D0414A936843F4604393603F4A2C
:1015F800936823F0F003A068034393600D462368C3
:1016080013F0010F31D06368012B20D0022B25D0B5
:10161800364A126812F0020F63D034498A6822F001
:10162800030213438B6000F0CBF806462F4B9B68F0
:1016380003F00C036268B3EB820F16D000F0C0F819
:10164800801B41F288339842F0D90320B9E7274A32
:10165800126812F4003FE0D10120B2E7234A126871
:1016680012F0007FD9D10120ABE71F4B1B6803F0B4
:101678000F03AB420CD91C4A136823F00F032B430A
:101688001360136803F00F03AB4201D0012098E701
:10169800236813F0040F06D0144A936823F4E05328
:1016A800E1680B439360236813F0080F07D00F4AD3
:1016B800936823F46043216943EAC1039360FFF709
:1016C80003FF0A4B9B68C3F30313094AD35CD84052
:1016D800084B1860002000F035F8002071E7012061
:1016E800704701206DE700BF003C0240003802400F
:1016F800101F000800000020014B1868704700BF49
:101708000000002008B5FFF7F7FF044B9B68C3F300
:101718008223034AD35CD84008BD00BF003802408A
:10172800201F000808B5FFF7E7FF044B9B68C3F3C9
:101738004233034AD35CD84008BD00BF003802409A
:10174800201F000810B504460E4B18784FF47A7322
:10175800B3FBF0F30C4A1068B0FBF3F0FEF73AFF66
:1017680068B90F2C01D901200AE0002221464FF068
:10177800FF30FEF7FDFE054B1C60002000E0012055
:1017880010BD00BF04000020000000200800002059
:1017980008B50320FEF7DAFE0020FFF7D3FF00F0BC
:1017A80015F8002008BD0000034A1168034B1B7898
:1017B8000B441360704700BF98000020040000200D
:1017C800014B1868704700BF9800002008B5032037
:1017D800FEF7BCFE002211466FF00B00FEF7C8FEB4
:1017E800002211466FF00A00FEF7C2FE00221146E1
:1017F8006FF00900FEF7BCFE002211466FF00400EE
:10180800FEF7B6FE002211466FF00300FEF7B0FEA9
:10181800002211466FF00100FEF7AAFE00221146D1
:101828004FF0FF30FEF7A4FE08BD00000268124B1F
:101838009A4200D0704700B587B003F594335A6CCC
:1018480042F010025A645B6C03F010030093009B93
:101858004FF440430193022302930023039303238D
:101868000493042305930DEB03010448FFF74CFB95
:1018780007B05DF804FB00BF0010014000040240FF
:10188800F0B583B00446036813F0010F0CD0B34BD6
:101898009A6822F400029A609A68416B0A439A6037
:1018A800436BC3B1002600E00026236813F4002F21
:1018B80015D0AA4AD2F88C3023F44013E16B0B43BD
:1018C800C2F88C30E36BB3F5801F06D0002B00F014
:1018D8004181002504E00126E7E70126F6E7002517
:1018E800236813F4801F0FD09C4AD2F88C3023F45D
:1018F8004003216C0B43C2F88C30236CB3F5800F86
:1019080000F02A8103B90125236813F0807F00D0F5
:10191800012613F0200F40F02381236813F0100FE5
:101928000CD08E4BD3F88C2022F08072C3F88C2018
:10193800D3F88C20A16B0A43C3F88C20236813F4D6
:10194800804F08D0854AD2F8903023F44033616E36
:101958000B43C2F89030236813F4004F08D07F4A35
:10196800D2F8903023F44023A16E0B43C2F8903094
:10197800236813F4803F08D0784AD2F8903023F4D3
:101988004013E16E0B43C2F89030236813F4003F14
:1019980008D0724AD2F8903023F44003216F0B43E9
:1019A800C2F89030236813F0400F08D06B4AD2F881
:1019B800903023F00303616C0B43C2F89030236826
:1019C80013F0800F08D0654AD2F8903023F00C034A
:1019D800A16C0B43C2F89030236813F4807F08D0C1
:1019E8005E4AD2F8903023F03003E16C0B43C2F822
:1019F8009030236813F4007F08D0584AD2F890300A
:101A080023F0C003216D0B43C2F89030236813F410
:101A1800806F08D0514AD2F8903023F44073616D3A
:101A28000B43C2F89030236813F4006F08D04B4A78
:101A3800D2F8903023F44063A16D0B43C2F8903084
:101A4800236813F4805F08D0444AD2F8903023F416
:101A58004053E16D0B43C2F89030236813F4005FE4
:101A680008D03E4AD2F8903023F44043216E0B430D
:101A7800C2F89030236813F4800F08D0374AD2F8A0
:101A8800903023F08063A16F0B43C2F89030236835
:101A980013F4001F0DD0314AD2F8903023F00063C0
:101AA800E16F0B43C2F89030E36FB3F1006F00F0C1
:101AB800BD80236813F4802F08D0284AD2F89030CC
:101AC80023F04073616F0B43C2F89030236813F41E
:101AD800000F09D0214AD2F8903023F08053D4F86F
:101AE80080100B43C2F89030236813F0806F09D040
:101AF8001A4AD2F8903023F00053D4F884100B43DC
:101B0800C2F89030236813F0006F09D0134AD2F856
:101B18008C3023F00073D4F888100B43C2F88C3053
:101B2800236813F0805F09D00C4AD2F88C3023F078
:101B38008063D4F88C100B43C2F88C30002E77D118
:101B48002368B3F1007F73D0002D40F0048100209A
:101B580003B0F0BD0125C3E60126D3E600380240F4
:101B6800B34B1A6C42F080521A641B6C03F080531A
:101B78000193019BAF4A136843F480731360FFF726
:101B88001FFE0746AB4B1B6813F4807F06D1FFF797
:101B980017FEC01B6428F5D90320D9E7A44B1B6F97
:101BA80013F4407315D0226B02F440729A4210D09D
:101BB8009F4B1A6F22F44072196F41F480311967F4
:101BC800196F21F4803119671A671B6F13F0010F21
:101BD80012D1236B03F44072B2F5407F1DD0944AB2
:101BE800936823F4F813936091490B6F226BC2F347
:101BF8000B0213430B6790E6FFF7E2FD07468C4B99
:101C08001B6F13F0020FE4D1FFF7DAFDC01B41F29E
:101C180088339842F3D903209AE78548826822F4EA
:101C2800F812854919400A438260DDE7012540E73B
:101C38007F4A136823F080631360FFF7C1FD0646EF
:101C48007B4B1B6813F0006F06D0FFF7B9FD801BB4
:101C58006428F5D903207BE7236813F0010F13D01C
:101C6800636B8BB9724AD2F88430D2F884106068FA
:101C780003F4403343EA801301F070610B43A16819
:101C880043EA0173C2F88430236813F4002F03D0A9
:101C9800E26BB2F5801F06D013F4801F1ED0236CB0
:101CA800B3F5800F1AD1624AD2F88430D2F8841082
:101CB800606803F4403343EA8013E06843EA006352
:101CC80001F0E0410B43C2F88430D2F88C3023F0A5
:101CD8001F03616A01390B43C2F88C30236813F083
:101CE800807F11D0524AD2F88400D2F884106668F6
:101CF80023691B0443EA861300F07060034301F074
:101D0800E0410B43C2F88430236813F0007F0DD004
:101D1800626823691B0443EA8213E26843EA0263A8
:101D2800A26843EA0273424AC2F88430404A136800
:101D380043F080631360FFF743FD06463C4B1B6886
:101D480013F0006F7FF400AFFFF73AFD801B6428A3
:101D5800F4D90320FCE6364A136823F08053136055
:101D6800FFF72EFD0546324B1B6813F0005F06D0C7
:101D7800FFF726FD401B6428F5D90320E8E6236811
:101D880013F4002F01D0E26B22B113F4801F1DD091
:101D9800236CDBB9264AD2F88830D2F888106069FB
:101DA80003F4403343EA8013A06943EA006301F077
:101DB800E0410B43C2F88830D2F88C3023F4F85352
:101DC800A16A013943EA0123C2F88C30236813F46D
:101DD800001F03D0E36FB3F1006F13D0144A1368E8
:101DE80043F080531360FFF7EBFC0446104B1B686D
:101DF80013F0005F19D1FFF7E3FC001B6428F5D945
:101E08000320A5E60A4AD2F88800D2F88810656946
:101E1800236A1B0443EA851300F07060034301F052
:101E2800E0410B43C2F88830D8E7002090E600BFB5
:101E38000038024000700040FFFCFF0FDFF834D08C
:101E4800002103E00C4B5B58435004310B480C4B0A
:101E580042189A42F6D30B4A02E0002342F8043BA8
:101E6800094B9A42F9D3FEF7E5FC00F011F8FEF7AA
:101E780093FC704700000820381F0008000000206D
:101E88000C0000200C0000209C000020FEE7000051
:101E980070B50D4E0D4CA41BA4100025A54209D108
:101EA8000B4E0C4C00F018F8A41BA4100025A542FA
:101EB80005D170BD56F8253098470135EEE756F83C
:101EC800253098470135F2E7301F0008301F000819
:101ED800301F0008341F0008F8B500BFF8BC08BC64
:101EE8009E467047F8B500BFF8BC08BC9E467047D0
:101EF8004142434445210D0A000000005372632FFC
:101F08006D61696E2E630000000000000000000093
:101F18000102030406070809000000000102030487
:081F280040E3FF7F010000000F
:041F30001D02000886
:041F3400F9010008A7
:0C1F38000024F400010000001000000074
:0400000508001E458C
:00000001FF
