:020000040800F2
:1000000000000320A5BF0108CDD20008D1D200080E
:10001000EDD2000809D3000825D300080000000035
:1000200000000000000000000000000041D30008B4
:1000300045D300080000000049D300084DD3000854
:10004000F5BF0108F5BF0108F5BF0108F5BF0108BC
:10005000F5BF0108F5BF0108F5BF0108F5BF0108AC
:100060005DD30008F5BF010865D30008F5BF01089E
:10007000F5BF01086DD3000879D3000885D30008C7
:10008000F5BF0108F5BF0108F5BF0108F5BF01087C
:10009000F5BF0108F5BF0108F5BF0108F5BF01086C
:1000A000F5BF010891D30008D1D30008F5BF0108BE
:1000B000F5BF0108F5BF0108F5BF0108F5BF01084C
:1000C000F5BF0108E9D30008F5BF0108F5D3000822
:1000D000F5BF010801D40008F5BF0108F5BF01080C
:1000E0000DD40008F5BF0108F5BF0108F5BF0108F0
:1000F00015D4000821D40008F5BF010891D40008E8
:10010000F5BF0108F5BF0108F5BF0108F5BF0108FB
:100110009DD40008F5BF0108F5BF0108A9D4000867
:10012000BDD40008F5BF0108C9D40008D5D4000823
:10013000F5BF0108F5BF0108F5BF0108F5BF0108CB
:10014000F5BF0108F5BF0108F5BF0108F5BF0108BB
:10015000F5BF0108F5BF0108E1D40008F5BF0108AB
:10016000EDD40008F5BF0108F5BF0108F5BF01088F
:10017000F5BF0108F5BF0108F5BF01080000000048
:10018000F5BF0108F5BF0108F5BF0108F5BF01087B
:10019000F5BF0108F9D4000805D50008F5BF01082E
:0C01A000F5BF0108F5BF0108F5BF01081C
:1001C00010B5054C237833B9044B13B10448AFF391
:1001D00000800123237010BD840B0020000000006C
:1001E000A86C02080C4B43B10C480D4910B5AFF395
:1001F00000800C48036823B910BD0A48036833B96E
:100200007047094B002BF7D0BDE810401847064B4C
:10021000002BF5D0184700BF00000000A86C0208B2
:10022000880B0020800B002000000000154B002BE5
:1002300008BF134B9D46A3F5803A00218B460F461D
:100240001348144A121A1BF0D9FF0F4B002B00D091
:1002500098470E4B002B00D0984700200021040047
:100260000D000D48002802D00C481DF025FB1BF0A6
:100270009DFF200029001BF0BFFE1BF087FF00BF81
:100280000000080000000000000000000000000066
:10029000840B0020EC6E0020B9D801083DE801086D
:1002A0006CA4020800000020800B0020840B0020BA
:1002B000EC6E0020704700BF704700BF10B5094BBF
:1002C0004FF0FF3200241A621C625A625C621A61AB
:1002D0001C615A615C619A619C61FFF7EDFF2046E9
:1002E00010BD00BF0038024070B50E4B0E4D1B68AC
:1002F0002A7806464FF47A70B0FBF2F0B3FBF0F0C8
:1003000000F05AF908B90F2E01D9012070BD04463A
:10031000024631464FF0FF3000F0ECF86E602046A8
:1003200070BD00BF0C0000200400002008B50B4B7E
:100330001A6842F400721A601A6842F480621A6005
:100340001A6842F480721A60032000F0C1F800209D
:10035000FFF7CAFF0CF08AFF002008BD003C0240F6
:10036000034A044B11681B780B441360704700BFAD
:10037000000D002004000020014B1868704700BFEA
:10038000000D0020014B5868704700BF040000209A
:10039000064A08B51378834205D0034650681370A7
:1003A000FFF7A2FF08BD002008BD00BF0400002029
:1003B000014B1878704700BF0400002038B5044690
:1003C000FFF7DAFF631C054602D0044B1B781C4480
:1003D000FFF7D2FF401B8442FAD838BD040000204A
:1003E000024A136823F002031360704710E000E034
:1003F000024A136843F002031360704710E000E004
:100400000048704700030701014B1868000C704753
:10041000002004E0024B1868C0F30B00704700BFD7
:10042000002004E0024A536843F001035360704720
:10043000002004E0024A536823F001035360704730
:10044000002004E0024A536843F0020353607047FF
:10045000002004E0024A536823F00203536070470F
:10046000002004E0024A536843F0040353607047DD
:10047000002004E0024A536823F0040353607047ED
:10048000002004E0014B01221A607047000427425B
:10049000014B00221A60704700042742044B054AB2
:1004A000196801601268426008331B6883607047F6
:1004B000107AFF1F147AFF1F014B01221A60704748
:1004C00020002742014B00221A607047200027427B
:1004D000074AD3684FF6FF010B40000243F0BF63A9
:1004E00000F4E06043F400330343D360704700BF7F
:1004F00000ED00E0184B70B4DC68C4F30224C4F1D2
:100500000706042E04F1040328BF0426062B17D97E
:10051000033C0125A540013D2A400123B340013B96
:100520001940A140002841EA02010CDB00F16040C3
:1005300000F561400901C9B280F8001370BC704732
:1005400000221446E9E7054B00F00F0009010344BF
:10055000C9B2197670BC704700ED00E0FCEC00E019
:1005600000F01F0101234009024A8B4042F820306D
:10057000704700BF00E100E04309203300F01F0096
:100580000122034902FA00F041F82300704700BF3E
:1005900000E100E0BFF34F8F0549064BCA6802F443
:1005A000E0621343CB60BFF34F8F00BFFDE700BF96
:1005B00000ED00E00400FA050138B0F1807F0ED2B2
:1005C000084B10B4084C5860F02084F82300002237
:1005D000072110469A6019605DF8044B70470120AE
:1005E000704700BF10E000E000ED00E0BFF35F8F58
:1005F000044A0549536A002023F48033536248605B
:10060000704700BF00ED00E090ED00E0064B074AA8
:1006100040F001005860536A43F480335362BFF3E3
:100620004F8FBFF36F8F704790ED00E000ED00E05B
:1006300013494378F0B48B6004781CB9CC600C612A
:10064000F0BC70474368CB60C27A037B877A457BF6
:10065000867B120642EA0373234343EAC74343EA15
:100660008543C57B447A027A43EA464343EA05431D
:1006700043EA042343EA42030B61F0BC704700BF26
:1006800090ED00E0024BD868C0F30220704700BF35
:1006900000ED00E0002870B422DB00F1604000F5BE
:1006A000614090F80043240901F00701C1F10706F9
:1006B000042E01F1040028BF042606280DD90339B1
:1006C00001258D40013D25400120B040CC40411E18
:1006D000214011601D6070BC704700252946F3E77A
:1006E000034C00F00F000444247E2409DCE700BF23
:1006F000FCEC00E04309403300F01F0001220349F5
:1007000002FA00F041F82300704700BF00E100E06A
:100710004309054A403300F01F0052F8233023FA02
:1007200000F000F00100704700E100E04309603391
:1007300000F01F000122034902FA00F041F82300F3
:10074000704700BF00E100E04309054A803300F034
:100750001F0052F8233023FA00F000F00100704728
:1007600000E100E0044A136804280CBF43F00403CE
:1007700023F004031360704710E000E0704700BFEF
:1007800008B5FFF7FBFF08BDF8B50446FFF7F4FD19
:10079000002C73D00222236884F835201A680021C7
:1007A00022F0010284F8341005461A6005E0FFF7D4
:1007B000E3FD401B05283BD823681A68D107F6D40F
:1007C000A7686268E66825696169A0693A433243AF
:1007D0002A430A43E169256A1F68354E02430A43EA
:1007E000616A2A433E40042942EA060227D01A6081
:1007F0005A6922F007021143DAB22E4D5961103ABC
:10080000A5FB021212092C4823F47F73815CE16579
:1008100023F00303032A88BF04333F228A400125C3
:100820000021A36508469A60616584F83550F8BDDB
:10083000032320226265184684F83530F8BDE56A46
:10084000216BA66A29430A431A605A6946F00401DB
:1008500022F007021143002DCED088B1B0F5005F21
:1008600018D0022E03D9032EC6D1EA01C4D5012324
:1008700040226265184684F83530F8BD0120F8BD85
:10088000012E03D0F1D3022EB6D1EEE7B5F1C07F31
:10089000B2D1ECE7032EAFD801A252F826F000BF88
:1008A0006F0800086B0800086F0800088D08000832
:1008B0003F8010F0ABAAAAAAC86C020800282FD06B
:1008C00090F83530DBB2022B2BD003681649DAB230
:1008D00070B4103A1C68154DA1FB021212090021D8
:1008E00024F0010421261C60196059609960D960C8
:1008F00019615E6123F47F73AD5CC56523F003036A
:10090000032A88BF04333F210022A940836570BCBD
:100910009960426580F8342080F835201046704791
:1009200001231846704700BFABAAAAAAC86C0208E8
:1009300070B490F83440012C0CD090F8354001256B
:10094000AC4280F8345008D0002380F834300220C4
:1009500070BC7047022070BC7047046802260025F6
:1009600080F8356045652568866825F48025402E29
:10097000256063600BBFA260A160E160E260236854
:1009800043F0010323600020E2E700BFF0B490F8D9
:100990003440012C0DD090F83540866D0125AC42D5
:1009A00080F8345008D0002380F834300220F0BCA6
:1009B00070470220F0BC704704680227002580F8C9
:1009C000357045652568876825F48025402F2560AA
:1009D00063600ABFA260A160E160C16D18BFE26000
:1009E0003F238B40026CB360236843F016032360FF
:1009F000636943F0800363611AB1236843F008031D
:100A00002360236843F0010323600020CFE700BF89
:100A100070B50446866DFFF7AFFC94F83530022BB5
:100A200006D080220023626584F83430012070BD36
:100A30002368216C1A6822F016021A605A6922F0A3
:100A4000800205465A6131B31A6822F008021A6022
:100A50001A6822F001021A6005E0FFF78DFC401BC6
:100A600005280FD823681B6813F00103F5D1E16D49
:100A70003F228A400121B260184684F8343084F85D
:100A8000351070BD202200230320626584F83430C5
:100A900084F8350070BDA26C002AD5D1D8E700BF1C
:100AA00090F83530022B03D0802343650120704736
:100AB0000268052380F83530136823F001031360C2
:100AC000002070472DE9F04F044683B09346019112
:100AD000FFF752FC94F83530022B08D08022002317
:100AE000626584F83430012003B0BDE8F08F2368DC
:100AF0001B68D90553D4019BE16D8146002B4BD077
:100B000010258D40D4F858A0DAF800304FF00808CE
:100B1000012704261D4231D1636DDA072ED4BBF1C3
:100B2000FF3F09D0BBF1000F40D0FFF725FCA0EB41
:100B3000090083453AD3E16DDAF8003008FA01F094
:100B4000034205D0626D42F001026265CAF80800F6
:100B500007FA01F0034205D0626D42F002026265BD
:100B6000CAF8080006FA01F00342D3D0626D1D42B4
:100B700042F004026265CAF80800CDD0636D13B17B
:100B8000636DDB0729D4019BD3B1102303FA01F174
:100B9000CAF808100020A7E720258D40B2E74FF4DF
:100BA00080730120636503B0BDE8F08F202100222F
:100BB0000123616584F8342084F83530032093E7FD
:100BC0003023019A03FA01F10123CAF808101046F4
:100BD00084F8342084F8353086E72046FFF718FF84
:100BE000E16D30238B4000250121CAF8083008460A
:100BF00084F8345084F8351076E700BFF0B583B040
:100C00000023876D0193C36D3D68624908229A40B5
:100C1000154204460E6803D001680868400776D480
:100C200001229A40154203D021684969080668D418
:100C300004229A40154203D02168096889075AD4D2
:100C400010229A40154203D02168086800073FD45B
:100C500020229A40154203D021680868C00625D496
:100C6000636D0BB3636DDA071AD50523216884F829
:100C700035300B68484A23F00103A2FB06020B60E3
:100C8000920A02E00B68DB0704D5019B01339A420C
:100C90000193F7D20022012384F8342084F8353000
:100CA000E36C0BB12046984703B0F0BDBA6094F8EE
:100CB0003520052A3BD00B6813F4802F0B6854D0E5
:100CC00019035FD5E36B002BCAD020469847C7E7CE
:100CD000BA600A6812F4802F0A6822D1D20503D4C0
:100CE0000A6822F008020A60226C002AB0D020466E
:100CF0009047E36DACE7BA60626D42F00402626552
:100D00009EE7BA60626D42F00202626590E7086891
:100D100020F004000860BA60626D42F00102626572
:100D20007EE71103E0D5A26C002AE0D190E70A68C3
:100D3000206C22F016020A604A6922F080024A61A1
:100D400020B30A6822F008020A603F22216D02FAED
:100D500003F300200122BB6084F8340084F83520BE
:100D60000029A1D0204688479EE713F48073A9D1BB
:100D70000A68012022F010020A6084F8343084F8F6
:100D800035009FE7636C002B9FD169E7A26C002AB6
:100D9000D7D1DAE70C000020B5814E1B034690F84E
:100DA000340001280DD010B493F83540012084425E
:100DB00083F8340007D0002283F834205DF8044B18
:100DC000704702207047052916D8DFE801F0120F9E
:100DD0000C0906031A650020EDE7DA640020EAE753
:100DE0009A640020E7E75A640020E4E71A640020D0
:100DF000E1E7DA630020DEE70020DCE790F834303A
:100E0000012B02460BD090F835000123984282F85E
:100E1000343006D00120002382F83430704702209D
:100E200070470629F6D8DFE801F01B1815120F0CE1
:100E300004000020D063106450649064D064106596
:100E4000E9E700201065E6E70020D064E3E7002032
:100E50009064E0E700205064DDE700201064DAE7EA
:100E60000020D063D7E700BF90F83500704700BF7F
:100E7000406D704770B48468802C24D090F8345052
:100E8000012D06D090F835500126B54280F8346027
:100E900002D0022070BC70470568022680F83560D9
:100EA000286840F480202860402C2B61039B6B60F5
:100EB0000BBFAA60A960E960EA602B6843F00103F8
:100EC0002B600020E6E74FF48073436570BC01207F
:100ED000704700BFF0B48468802C1ED0C56BBDB1D4
:100EE000456CADB1C56C9DB190F83450012D0CD05E
:100EF00090F835500126B54280F8346013D00023B5
:100F000080F834300220F0BC70470220F0BC7047FB
:100F100040234365F0BC012070474FF48073436564
:100F2000F0BC0120704705680026022780F8357064
:100F300046652E6846F480262E602B61049B6B600C
:100F4000B04B402C0BBFAA60A960E960EA609D42EB
:100F500051D8AD4B9D426CD903F556739D4200F0BC
:100F6000EA8018339D4200F01B8118339D4200F047
:100F70007381A64B4FF000629A604FF08061A44AE3
:100F8000A24B9542996000F0DB80A24A954200F0A6
:100F90000E811832954200F02E814FF000729A6057
:100FA0004FF080719A4B994A9D42916008BF01228F
:100FB0000AD0984B9D4200F0E280974A954214BFB8
:100FC0004FF480024FF48032904B9A602B68026C91
:100FD00043F016032B606B6943F080036B61002ABA
:100FE00064D02B6843F008032B602B6843F00103A7
:100FF0002B60002087E7894B9D4200F091801833D9
:101000009D4200F0BE8018339D4200F015817F4B59
:101010004FF000624FF080664FF000744FF0807127
:10102000DA60DE604FF48002DC60D960774BDA6012
:10103000CCE77B4B9D423DD918339D4200F0938015
:1010400018339D4200F0C88018339D4200F00B8198
:10105000744B4FF00062DA604FF08061724A714B5E
:101060009542D96000F08480704A954200F0BB80C0
:101070001832954200F0FE804FF00072DA604FF0B7
:101080008071694B674A9D42D16008BF01230AD035
:10109000664B9D4200F0AD8018339D4214BF4FF463
:1010A00080034FF480335F4AD3608FE7836C002B5B
:1010B00097D19AE75E4B9D4249D018339D4200F08C
:1010C000828018339D4200F0DB80564B4FF0006267
:1010D0009A604FF08061564A524B954299603BD0DE
:1010E000544A954269D01832954200F0D0804FF0B2
:1010F00000729A604FF080714D4B4A4A9D42916058
:1011000008BF012309D04B4B9D4263D018339D4249
:1011100014BF4FF480034FF48033424A936055E785
:101120003A4B2022102608240421DA60DE600122D6
:10113000DC60D9607AE7354B2021102299609A60F3
:10114000324B082204219A60012299603CE7354B1A
:101150002021102299609A60324A0823042193606A
:1011600001239160D9E72F4B20211022D960DA604A
:101170002C4A08230421D3600123D16093E7402245
:1011800022E7224B4FF400624FF480664FF4007464
:101190004FF48071DA60DE604022DC60D96045E7A0
:1011A0001A4B4FF400629A604FF48061E7E64FF407
:1011B00000729A604FF48071F4E64FF400729A6006
:1011C0004FF4807198E7174B4FF400629A604FF428
:1011D000806180E74023A0E7124B4FF40062DA60A1
:1011E0004FF480613AE74FF40072DA604FF4807197
:1011F00047E7402357E74FF400229A604FF48021DD
:10120000D0E600BF58640240B8600240006402406B
:10121000106402402864024040640240706402404E
:1012200058600240006002407060024088600240E6
:101230001060024028600240184B4FF400124FF437
:1012400080164FF400244FF48021DA60DE604FF402
:101250008032DC60D960E9E6104B4FF400129A60EE
:101260004FF480118BE60E4B4FF40012DA604FF40E
:101270008011F3E64FF40022DA604FF4802100E79A
:10128000074B4FF400129A604FF4801123E74FF49C
:1012900000229A604FF480212EE700BF00640240D4
:1012A00000600240036812B1196100207047D960E4
:1012B00000207047214BDA68D00605D52049CA695D
:1012C00010200243CA61D8601C4BDA68910606D52B
:1012D0001B49CA69202042F00802CA61D860174B36
:1012E000DA68520606D51649CA69402042F004025F
:1012F000CA61D860114BDA68100606D51049CA6970
:10130000802042F00202CA61D8600C4BDA68D10535
:1013100007D50B49CA694FF4807042F00102CA61D7
:10132000D860064BDA68920706D50549CA690220DB
:1013300042F02002CA61D860704700BF003C024002
:10134000040D0020F0B42B4D2C7E012C30D02A4C03
:10135000266946F080762661266946F00076266189
:10136000032701262F702E766961A0B1012822D0B3
:10137000022830D0206920F440702061206940F4B8
:1013800040702061206940F0010020610A60002067
:101390004B60F0BC7047236923F4407323612369D9
:1013A00023612369D2B2334323610A70F0BC7047D2
:1013B0000220F0BC7047236923F440732361236942
:1013C00043F480732361236992B243F001032361E4
:1013D00000200A80DDE7236923F440732361236939
:1013E00043F400732361236943F001032361002068
:1013F0000A60CEE7040D0020003C0240704700BFA9
:10140000704700BF38B5304B304CDB6813F4F97FC0
:101410000ED02378012B41D02378022B0CBF2569F5
:101420006569FFF747FF2846FFF7EAFF00232370AF
:10143000254BDA68D2070CD50122DA602378934273
:101440001CD02378022B2ED06069FFF7D7FF002332
:101450002370237803F0FF017BB91B4B1A6922F438
:10146000004222F0FF021A611A6922F080721A61AA
:101470001A6922F000721A61217638BD6368013B57
:1014800063606368ABB1E068FFF7B8FFE3680133FE
:10149000E360E068217A00F083FADAE74FF0FF3387
:1014A000E568E360BDE700F0D5FA2069FFF7A6FF25
:1014B000CDE74FF0FF35E560237000F0CBFA28460A
:1014C000FFF79CFFC5E700BF003C0240040D002071
:1014D000064B1A69002A01DB002070470449054ABF
:1014E00059605A601869C00F704700BF003C024045
:1014F00023016745AB89EFCD034A136943F00043ED
:1015000013610020704700BF003C0240054B5A6940
:10151000D20705D50449054A996000209A607047B2
:1015200001207047003C02403B2A19087F6E5D4C49
:10153000034A536943F0010353610020704700BF21
:10154000003C0240014BD869704700BF040D0020E9
:10155000124B70B500220546DA61FEF70DFF104C04
:10156000064601E0691C10D1E368DA03FAD4E368A7
:10157000DB0744BF0123E360094BD86810F4F9701E
:1015800002D0FFF797FE012070BD25B1FEF7F4FEF3
:10159000801B8542E8D2032070BD00BF040D0020EF
:1015A000003C02402DE9F041284C257E012D02D15E
:1015B0000220BDE8F0811F46054601234CF2503061
:1015C00090460E462376FFF7C3FFB8B9204B1A6941
:1015D00022F440721A611A69A5B91A6119695FFA91
:1015E00088F241F00101196132704CF25030FFF77E
:1015F000AFFF174A136923F0010313610023237619
:10160000BDE8F081012D16D0022D0AD042F44072BF
:101610001A611A6942F001021A61C6F80080776007
:10162000E3E742F400721A611A6942F001021A619A
:10163000C6F80080D9E742F480721A6119691FFA6E
:1016400088F241F0010119613280CEE7040D0020DB
:10165000003C0240044A137843F0020313704CF23A
:101660005030FFF775BF00BF143C02400E4B1A69A3
:1016700022F440721A6103291A690ED001290CBFA5
:1016800042F0040242F400421A61074A136943F42B
:10169000803343EA00201061704742F4004242F078
:1016A00004021A61F1E700BF003C0240F8B55D4D4D
:1016B0002B7E012B30D003680446DE074FF001007B
:1016C000287616D56368A668E76883424CF25030E6
:1016D00043D0FFF73DFF002842D1534B9E425AD0E2
:1016E000B6F5805F4ED2514923680A881643B6B2D8
:1016F0000E80990724D45A0710D41B0709D54C4BE8
:10170000227D197801F0F301197019780A431A70D3
:10171000002000232B76F8BD0220F8BD4CF250309B
:10172000267EFFF715FF38B9414A137826F01F06C9
:1017300003F01F033343137023681B07E9D5DEE76B
:101740004CF250302669FFF703FF10B9394BF6B25F
:101750001E7023685A07D0D5E0E7FFF7F9FE18B1ED
:1017600023689907C7D5EBE72F4B9E423BD0B6F5D0
:10177000805F30D22D4923680A8892B222EA060699
:101780000E80B6E72C4923680A8892B242EA1636E0
:10179000B6B20E80ADE727F00203012B19D0264A1E
:1017A00013889BB26FEA13336FEA0333032F13805E
:1017B000D6D14CF25030FFF7CBFE0028D0D11E49D5
:1017C00023680A8892B26FEA12326FEA02320A8004
:1017D0008FE7164AE4E7184923680A8892B222EA9A
:1017E00016360E8085E727F00203012B13D0124A2C
:1017F000138803F470431380032FB1D14CF250309F
:10180000FFF7A6FE0028ABD10B4923680A8802F433
:1018100070420A806DE7054A138803F47043138011
:10182000EAE700BF040D002000F0FF00163C024074
:10183000143C0240153C02401A3C02400D4B0E4A3B
:101840001B880F219BB2016083601378DBB2CC2B25
:1018500004D01378552B14BFAA235523074A0361DC
:10186000536923F01F030376137D03F00C034361D8
:10187000704700BF163C0240153C0240003C02404D
:10188000F8B50368DA07044626D54368012B4CF205
:1018900050302FD0A789E689A568FFF759FE38BBDD
:1018A00025F00203012B1BD0264923680A8892B237
:1018B00022EA06029B070A8011D54CF25030247CA4
:1018C000FFF746FE58B9204B1A7802F0EF021A7063
:1018D0001A7814431C70F8BD01209B07EDD4F8BDA5
:1018E0001A4A13889BB223EA0703032D138013D0EF
:1018F0002368F2E7A689E789A568FFF729FE002893
:10190000F6D125F00203012B0DD00E4923680A8879
:1019100092B23A430A80E0E74CF25030FFF718FEEB
:101920000028C1D0E4E7094A13889BB21E43032D67
:101930001680DDD14CF25030FFF70AFE0028E4D0CB
:10194000D6E700BF1A3C0240143C0240163C02405D
:10195000044B054A198881811288C281023B1B7899
:1019600003747047163C02401A3C0240034A137845
:1019700043F0800313700020704700BF173C024003
:10198000034A137803F07F0313700020704700BFF1
:10199000173C0240014B188880B270471A3C024045
:1019A00039B101291FD002290CBF4FF400714FF447
:1019B00040710E4B1A6922F440721A611A69114380
:1019C00019611A6922F0F8021A611A690B2842F0AB
:1019D000020288BF043042EAC00018611A6942F46A
:1019E00080321A6170474FF48071E2E7003C024098
:1019F000164B1A7E012A1DD0154A116941F08071DB
:101A000070B511611169F32441F000711161D46066
:101A10000168012291421A760ED08568047CC6685E
:101A20001A70284621465E60DD601C72FFF7B8FF21
:101A3000002070BD022070474268007C02241146DD
:101A40001C701A61FFF712FE002070BD040D00200B
:101A5000003C0240144B1A6891050FD51A6822F415
:101A600000721A601A6842F400621A601A6822F45E
:101A700000621A601A6842F400721A600A4B1A680F
:101A800052050FD51A6822F480621A601A6842F46F
:101A900080521A601A6822F480521A601A6842F45E
:101AA00080621A60704700BF003C02402DE9F84395
:101AB000284E337E012B03D102273846BDE8F88338
:101AC000012304464CF2503088463376FFF740FD40
:101AD000074648BB4FF0FF33C8F800302368012B9E
:101AE00027D0A568E3682B449D421BD2DFF868909D
:101AF00005E0E368A26801351344AB4212D9217CAA
:101B00002846FFF74DFF4CF25030FFF721FDD9F882
:101B1000103023F0FA03C9F810300028E9D0C8F8D3
:101B200000500746FFF796FF002333763846BDE89E
:101B3000F8836168207CFFF799FD4CF25030FFF785
:101B400007FD054A136923F4004323F00403074605
:101B50001361E7E7040D0020003C02402DE9F04F3F
:101B6000D1F800C0DFF83C82DFF83CE283B000250A
:101B700003E00135102D00F0A5800123AB4003EAFE
:101B80000C029342F5D14E6826F0100ABAF1020F0A
:101B900000F09B804FEA45090324D0F800B004FA16
:101BA00009F4E44306F003070BEA040B07FA09F70C
:101BB0000AF1FF3A47EA0B07BAF1010F076040F25A
:101BC000AA80C7688B683C4003FA09F32343C360CB
:101BD000F300CED54FF00009CDF80490D8F844308A
:101BE00043F48043C8F84430D8F8444025F0030358
:101BF00003F1804304F4804403F59C33019405F021
:101C00000304019FD3F808A0A4000F27A7402AEAE5
:101C1000070A5E4FB8422CD007F58067B84200F043
:101C20008D805B4FB84200F08E805A4FB84200F072
:101C30008F80594FB84200F09080584FB84200F062
:101C40009180574FB84200F09280DFF8609148458C
:101C500000F09280DFF85891484500F09280DFF85C
:101C6000549148450CBF4FF009094FF00A0909FA91
:101C700004F94AEA09079F60DEF80030D443F7030D
:101C800054BF23401343CEF80030DEF80430B703CE
:101C900054BF23401343CEF80430DEF80830F70277
:101CA00054BF23401343CEF80830DEF80C30B602A0
:101CB00005F1010554BF23401343102DCEF80C301D
:101CC0007FF45BAF03B0BDE8F08F4FEAD50900EBBE
:101CD000890905F00707D9F82040BF004FF00F0B26
:101CE0000BFA07FB24EA0B0A0C69BC4044EA0A041D
:101CF000C9F820404FEA45090324D0F800A004FAAF
:101D000009F4E44306F003070AEA040A07FA09F7AC
:101D100047EA0A070760876807EA040ACF6807FAF4
:101D200009F747EA0A078760D0F804A0C6F300174E
:101D30002AEA0303AF401F43476042E74FF001091F
:101D400009FA04F995E74FF0020909FA04F990E756
:101D50004FF0030909FA04F98BE74FF0040909FA77
:101D600004F986E74FF0050909FA04F981E74FF015
:101D7000060909FA04F97CE74FF0070909FA04F9A2
:101D800077E74FF0080909FA04F972E7000002400A
:101D900000080240000C0240001002400014024003
:101DA0000018024000380240003C0140001C024084
:101DB00000200240002402402DE9F04F0023DFF80C
:101DC0006091DFF86081DFF860A102E00133102B41
:101DD00073D0012606FA03F232EA0104F6D14FF07D
:101DE000030C03FA06F405680CFA04F4E44323FA3E
:101DF0000CF7254000EB8707056003F00705D7F8CF
:101E000020B04FF00F0EAD000EFA05F52BEA0505D8
:101E10003D628568254085604568D2431540456030
:101E2000C76823F0030505F180453C4005F59C3566
:101E3000C46003EA0C04AF68A4000EFA04FE48452F
:101E400007EA0E073FD050453AD02D4EB0423CD065
:101E50002C4EB0423DD02C4EB0423DD02B4EB04225
:101E60003ED02B4EB0423FD02A4EB04240D02A4EF8
:101E7000B04241D0294EB04221D00A2606FA04F4DD
:101E8000A742A3D1AC6824EA0E04AC60D8F80040A5
:101E90001440C8F80040D8F804401440C8F8044082
:101EA000D8F808401440C8F80840D8F80C4001336E
:101EB0002240102BC8F80C208BD1BDE8F08F0926EA
:101EC00006FA04F4DCE70024DAE7022606FA04F452
:101ED000D6E70CFA04F4D3E7042606FA04F4CFE7B5
:101EE000052606FA04F4CBE7062606FA04F4C7E74B
:101EF000072606FA04F4C3E7082606FA04F4BFE747
:101F000000080240000C0240001002400014024091
:101F100000180240001C0240002002400024024041
:101F200000000240003C01400004024003691942E5
:101F300014BF01200020704702B909048161704775
:101F4000436959404161704782B04FF48033019337
:101F5000019B0B430193019BC361C161019BC36161
:101F6000C3690193C06980F48030C0F3004002B0BF
:101F7000704700BF704700BF044A5169014200D159
:101F8000704708B55061FFF7F5FF08BD003C014000
:101F90002DE9F843074690469946C1F307468DB2AE
:101FA0003C68012E1FD0A06935EA000314BF012050
:101FB000002000B3606943051FD4B8F1FF3FF0D0A3
:101FC000B8F1000F05D0FEF7D7F9A0EB0900804566
:101FD000E6D2002320223B6387F83C3087F83D207F
:101FE0000320BDE8F883626935EA020314BF0120CB
:101FF00000200028DED1BDE8F883236800226FF4BA
:10200000806643F40073042520212360012066616B
:102010003D6487F83C203A6387F83D10BDE8F883BB
:102020002DE9F041804617461D46C1F307468CB2A4
:10203000D8F8001009E0886934EA00030CBF0120D9
:102040000020B8420BD16B1C0CD1012EF3D14B698F
:1020500034EA03030CBF01200020B842F3D0002073
:10206000BDE8F0812DB1FEF787F9069BC01A8542C5
:10207000DED200232022C8F8303088F83C3088F8BF
:102080003D20032088F83E30BDE8F081F8B50446D5
:102090000E4617462068436913F0040324D14569AE
:1020A0006A050CD56FF48065042120224561216406
:1020B0000120236384F83C3084F83D20F8BD731C74
:1020C000E9D026B1FEF758F9C01B8642E2D2236C54
:1020D000002243F020032021236484F83C20226363
:1020E000032084F83D10F8BD0020F8BD70B505460A
:1020F0000C46164608E05169C90617D45CB1FEF7D4
:102100003BF9801B844206D32A68536913F04003CD
:10211000F1D0002070BD2B6C2022134300212B64D2
:1021200085F83C1085F83D20032070BD6FF010004D
:10213000202150612B6401202B6385F83C3085F809
:102140003D1070BDF8B504460E4617462068436939
:1021500013F0800324D145696A050CD56FF48065BE
:1021600004212022456121640120236384F83C304E
:1021700084F83D20F8BD731CE9D026B1FEF7FCF8C9
:10218000C01B8642E2D2236C002243F020032021B0
:10219000236484F83C202263032084F83D10F8BDBA
:1021A0000020F8BD2DE9F047056884B02C680D9E2D
:1021B00044F48074884691469A462C600C9B0096A5
:1021C00000224FF001110746FFF72AFF18B1032044
:1021D00004B0BDE8F0873A681E4908F0FE031361B9
:1021E000384633460C9AFFF7D3FE20B13B6C042BE4
:1021F000EDD10120ECE73B6803905A6903929B699B
:10220000039332460C99039B3846FFF79BFF88B92E
:10221000BAF1010F18D039684FEA19230B61324621
:102220000C993846FFF78EFF20B93A685FFA89F3B8
:102230001361CDE73B6C042BC9D13A68136843F4B2
:10224000007313600120C3E73B685FFA89F21A61EB
:10225000BEE700BF020001002DE9F04704682568D1
:1022600045F48065256084B025680D9E45F4807531
:10227000884691469A4625600C9B009600224FF0B6
:1022800001110746FFF7CCFE18B1032004B0BDE8EA
:10229000F0873B682F495FFA88F808F0FE021A6160
:1022A000384633460C9AFFF773FE20B13B6C042B83
:1022B000EBD10120EAE73B6803905A6903929B69DE
:1022C000039332460C99039B3846FFF73BFF60B9F6
:1022D000BAF1010F3B6811D15FFA89F21A613246F7
:1022E0000C993846FFF72EFFB8B13B6C042BCCD1CC
:1022F0003A68136843F400731360DAE74FEA19226F
:102300001A610C9932463846FFF71CFF0028ECD1C1
:102310003A685FFA89F31361E1E739680B6843F4BF
:1023200080730B6002460C9B00964FF001113846FB
:10233000FFF776FE0028A8D13A68064948F0010860
:10234000C2F8108033460C9A3846FFF721FE002869
:10235000ACD19BE702000100704700BF00286CD0A1
:10236000F8B590F83D30044603F0FF02002B4FD043
:102370002268334D242384F83D30136823F0010391
:10238000136003F07BF92F4A61682368A2FB0062A7
:10239000920CA9425A6026D84900B0FBF1F0C0F374
:1023A0000B01013203291A6298BF0420E569D4F8B1
:1023B00020E02169E7686269A669D86145EA0E05EF
:1023C000394332431D609960DA601968002241F098
:1023D0000101202519601046226484F83D502263D3
:1023E00084F83E20F8BD4FF49675174FA66805FB9C
:1023F00002F2A7FB0252920901321A626EB901EB96
:102400004101B0FBF1F0C0F30B029AB90120CDE716
:1024100080F83C200AF022FBAAE701EB810101EBE6
:102420008101B0FBF1F0C0F30B02002AEED040F4C2
:102430004040BBE740F40040B8E70120704700BFD0
:10244000A086010083DE1B43D34D6210704700BF9E
:10245000B0B10268242310B580F83D30136823F032
:102460000103044613600AF003FC0023236484F88C
:102470003C3084F83D301846236384F83E3010BD6C
:10248000012070472DE9F041044684B01F4688467C
:102490001546FDF771FF94F83D30202B04D002253E
:1024A000284604B0BDE8F0810646009019230122B9
:1024B00065492046FFF7B4FD0028F0D194F83C3080
:1024C000012BECD023681A680121D20784F83C1054
:1024D00002D41A680A431A601A685C4922F400623E
:1024E0001A60212284F83D20102284F83E20002228
:1024F00022646785E162618DE26A6562042A218552
:1025000019D0012A17D012F5803F14D0226B122A5D
:1025100011D000960A9B00224FF001112046FFF7D0
:102520007FFD68B1236C042B00F08280002384F8C7
:102530003C300325B4E71A6842F480721A60E8E779
:102540002369B3F5804F5ED1236808F0FE021A615B
:1025500033460A9A3E492046FFF71AFD054608B160
:10256000236CDFE7236803905A6903929B69039306
:10257000039B30E0FFF7E6FD32460A9900283DD183
:10258000676AD4F800E0B4F828C07B1C63623B782B
:10259000CEF81030638D013B9BB26385DEF814806A
:1025A0000CF1FF339BB218F0040F204623850FD0A7
:1025B00007F1020863B1C4F824807B78CEF81030AC
:1025C000638D013BACF1020C9BB2A4F828C063857B
:1025D000FFF75CFD90B9238D0A9932462046002B07
:1025E000C8D121680A68202042F400720A6084F889
:1025F0003D0084F83C3084F83E3051E7236C042BD6
:102600001BD003254CE74FEAE8132268114903F079
:10261000060343F0F0031361204633460A9AFFF79E
:10262000B7FC00289CD122685FFA88F313618FE71A
:10263000002384F83C30012532E72268136843F414
:102640000073136001252BE7020010000000FFFF5C
:1026500002000100080001002DE9F041044688B0A5
:1026600098460D461746FDF787FE94F83D30202B1F
:1026700004D00225284608B0BDE8F0810646009047
:1026800019230122A2492046FFF7CAFC0028F0D1F5
:1026900094F83C30012BECD023681A680121D00754
:1026A00084F83C1002D41A680A431A601A689949DF
:1026B00022F400621A60222284F83D20102284F85D
:1026C0003E2000222264A4F82A80E162608DE16A43
:1026D0001A68676242F48062042920851A6019D062
:1026E000012917D011F5803F14D0226B112A11D087
:1026F00000960E9B00224FF001112046FFF790FC40
:1027000068B1236C042B00F0F980002384F83C307E
:102710000325AFE71A6842F480721A60E8E723697C
:10272000B3F5804F40F0B38045F001032268DBB27F
:10273000136133460E9A78492046FFF729FC054677
:1027400008B1236CDDE7238D9BB9236803955A6993
:1027500003929A690392039A1A6842F400721A600B
:102760000023202284F83D2084F83C3084F83E3059
:1027700080E72268012B116800F0D480022B00F062
:10278000DF8041F48061116006955169069192697C
:102790000692069A614F032B4CD8012B69D0022B6D
:1027A00000960E9B4FF00002394620461CD0FFF7E2
:1027B00037FC002869D12368D4F824E0196821F493
:1027C000806119601B690EF1010262628EF80030AF
:1027D000638D218D0096013B9BB2013963850E9B71
:1027E0002185024639462046FFF71AFC00284CD1C5
:1027F0002368616A1A6842F400721A601B694A1CF5
:1028000062620B70638D218D606A2268013B9BB20E
:10281000638512694B1E411C238561620270238D02
:10282000628D013B013A9BB292B223856285002BF7
:10283000B1D195E732460E992046FFF757FC0028A4
:1028400061D1636A2268591C126961621A70628DD3
:102850002168238D013A92B262854A69013B9BB29D
:1028600052072385E3D5636A0A69591C61621A70AD
:10287000D5E732460E992046FFF738FC002842D1B2
:10288000636A2268591C1269F0E70325F2E6EF112A
:102890002368234907F0060747F0F0021A61204633
:1028A00033460E9AFFF774FB00287FF44AAF236883
:1028B0000E9A1949EDB21D6120463346FFF768FBB9
:1028C000024600287FF43DAF2368079059690791BD
:1028D000996907910799196841F480711960204638
:1028E0000E9B00964FF00111FFF79AFB00287FF432
:1028F00008AF236847F0F1071F611AE7002384F847
:102900003C300125B6E6236C202BBED00125B1E674
:10291000020010000000FFFF02000100040001009F
:102920000800010021F4806111600495516904914F
:10293000916904910499116841F40071116029E7CB
:1029400021F480611160116841F400611160059506
:102950005169059192690592059A1BE72DE9F041AD
:10296000044684B01F460D461646FDF705FD94F853
:102970003D30202B03D0022004B0BDE8F081002DB3
:1029800038D0002E36D094F83C30012BF3D021689B
:102990000B680122DB07804684F83C2002D40B68D8
:1029A00013430B600B68444823F400630B6021233E
:1029B00084F83D300022202384F83E30226466856E
:1029C000E062638D0868238540F4806065623B4661
:1029D00008603A49CDF800802046FFF721FB58B146
:1029E0000320C9E72268136823F480631360236C13
:1029F000042BF5D10120BFE7236802905A690292A7
:102A00009A6923690292B3F5404F029A41D0238D0F
:102A1000424639462046B3B1FFF794FB0028E1D186
:102A2000626A2168208D531C636213780B61638D89
:102A3000013B9BB263854D69431E9BB26D072385A5
:102A4000E6D5951CD3B9CDF800803B4600224FF463
:102A500082312046FFF7E4FA0028C1D123686FF4E1
:102A600080625A611A68202122F480621A6084F818
:102A70003D1084F83C0084F83E007DE765625378A1
:102A80000B61628D831E013A9BB292B223856285EF
:102A9000BEE70246CDF800803B4608492046FFF7D6
:102AA000BFFA00289CD1236803905A6903929B695E
:102AB0000393039BABE700BF0000FFFF0200010090
:102AC0002DE9F041044684B01E460D469046FDF7C0
:102AD00053FC94F83D30202B04D00225284604B046
:102AE000BDE8F081002D3AD0B8F1000F37D094F84E
:102AF0003C30012BF1D021680B680122DB0707462F
:102B000084F83C2002D40B6813430B600B684F48D9
:102B100023F400630B60222384F83D30002220233D
:102B200084F83E302264A4F82A80E062638D08684D
:102B3000656240F48060238508603346444900970D
:102B40002046FFF76DFA054658B10325C6E722680F
:102B5000136823F480631360236C202BF5D00125C8
:102B6000BCE7236802905A6902929B690293029B18
:102B7000238D15E0FFF7BAFA0028E8D1636A2268CE
:102B8000591C126961621A70628D2168238D013AA5
:102B900092B262854A69013B9BB25007238532D4C9
:102BA0003A4631462046002BE4D12268536913F09F
:102BB000100336D15169490512D56FF480650420A0
:102BC00020215561206484F83C30236384F83D1053
:102BD000136823F480631360236C042BB5D1BEE724
:102BE0002EB1FDF7C9FBC01B8642DED22268236CE2
:102BF000002143F020032020236484F83C1021634B
:102C000084F83D00E4E7636A0A69591C61621A703E
:102C1000238D628D013B013A9BB292B2238562857E
:102C2000BEE70023039351690391116841F001014C
:102C3000116003991168202021F48061116084F8EB
:102C40003D0084F83C3084F83E3047E70000FFFF49
:102C500002000100F0B583B00024019490F83D40DB
:102C6000202C02D0022003B0F0BD254C254D246855
:102C7000E408A5FB0454240A04EB840404EB840454
:102C8000019403E00468A569AE070CD5019C651E9C
:102C90000195002CF6D12023046380F83C4080F895
:102CA0003D300320DFE790F83C50012DDAD0256855
:102CB0000126ED0780F83C6002D425683543256085
:102CC0002568114E25F4006525604FF0210E002582
:102CD000102780F83DE080F83E7005644385C662A9
:102CE000468D41642368426243F480730685236005
:102CF000636880F83C5043F4E06328466360B2E7C1
:102D00000C00002089B5F8140000FFFFF0B583B077
:102D10000024019490F83D40202C02D0022003B002
:102D2000F0BD274C274D2468E408A5FB0454240A71
:102D300004EB840404EB8404019403E00468A569B3
:102D4000AE070CD5019C651E0195002CF6D1202301
:102D5000046380F83C4080F83D300320DFE790F8C2
:102D60003C50012DDAD025680126ED0780F83C6043
:102D700002D42568354325602568134E25F4006587
:102D800025604FF0220E0025102780F83DE080F8E6
:102D90003E7005644385C662468D41642368426285
:102DA00043F4806306852360236843F480732360C3
:102DB000636880F83C5043F4E06328466360AEE704
:102DC0000C00002089B5F8140000FFFFF0B482B0B9
:102DD00000240094019490F83D40202C03D0022060
:102DE00002B0F0BC7047069C042C36D0012C34D0C5
:102DF00090F83C40012CF2D0046825680126ED07CC
:102E000080F83C6002D4256835432560256825F4A8
:102E10000065256021270025102680F83D7080F888
:102E20003E6005644385069BC362458D4164036B28
:102E30000093009B4262122B058501D0009B1BB9B9
:102E4000236843F4807323606268002342F4E062E5
:102E500080F83C3018466260C2E70F4C0F4D246882
:102E6000E408A5FB0454240A04EB840404EB840462
:102E7000019403E00468A469A607B9D5019C651E06
:102E80000195002CF6D12023046380F83C4080F8A3
:102E90003D300320A4E700BF0C00002089B5F814E2
:102EA000F0B482B00024019490F83D40202C03D06F
:102EB000022002B0F0BC7047069C042C3BD0012CD1
:102EC00039D090F83C40012CF2D0046825680126E6
:102ED000ED0780F83C6002D42568354325602568FD
:102EE00025F40065256022270025102680F83D7016
:102EF00080F83E6005644385069BC362458D41644E
:102F0000036B4262112B058501D0036B53B9069BFD
:102F1000042B2ED0012B2CD013F5803F29D0036B2E
:102F2000112B26D06268002342F4E06280F83C3026
:102F300018466260BDE7134C134D2468E408A5FBF6
:102F40000454240A04EB840404EB8404019403E095
:102F50000468A469A607B4D5019C651E0195002CE0
:102F6000F6D12023046380F83C4080F83D300320F4
:102F70009FE7236843F480632360236843F48073EE
:102F80002360CFE70C00002089B5F814F0B482B0BC
:102F90000023019390F83D30202B03D0022002B093
:102FA000F0BC7047F1B1EAB1254B264C1B68DB0839
:102FB000A4FB03431B0A03EB830303EB830301938B
:102FC00003E003689C69A5070ED5019B5C1E019474
:102FD000002BF6D12022036380F83C3080F83D209E
:102FE0000320DCE70120DAE790F83C40012CD5D043
:102FF0001C680125E40780F83C5002D41C682C436F
:103000001C601C68104D24F400641C6021270024FF
:10301000202680F83D7080F83E6004644285C562D9
:10302000458D1A68416242F4806205851A605A68CB
:1030300080F83C4042F4E06220465A60AFE700BFAF
:103040000C00002089B5F8140000FFFFF0B482B036
:103050000023019390F83D30202B03D0022002B0D2
:10306000F0BC7047F1B1EAB1244B254C1B68DB087A
:10307000A4FB03431B0A03EB830303EB83030193CA
:1030800003E003689C69A5070ED5019B5C1E0194B3
:10309000002BF6D12022036380F83C3080F83D20DD
:1030A0000320DCE70120DAE790F83C40012CD5D082
:1030B0001C680125E40780F83C5002D41C682C43AE
:1030C0001C601C680F4D24F400641C60222700243F
:1030D000202680F83D7080F83E6004644285C56219
:1030E0001D68028545F4806541621D605A6880F85C
:1030F0003C4042F4E06220465A60B0E70C000020F9
:1031000089B5F8140000FFFFF0B490F83D40282C7A
:1031100082B003D0022002B0F0BC704700292ED04C
:10312000002A2CD090F83C40012CF3D005682C6884
:103130000126E40780F83C6002D42C6834432C60FC
:103140002C6824F400642C6029270024202680F8B1
:103150003D7080F83E6004644285C362428D0194F4
:103160006B690193AB690193019B6B68416243F406
:10317000E063028580F83C4020466B60CBE701208D
:10318000C9E700BFF0B490F83D40282C82B003D0CE
:10319000022002B0F0BC704700292ED0002A2CD0AB
:1031A00090F83C40012CF3D005682C680126E40718
:1031B00080F83C6002D42C6834432C602C6824F4E2
:1031C00000642C602A270024202680F83D7080F8B7
:1031D0003E6004644285C362428D01946B69019331
:1031E000AB690193019B6B68416243F4E063028524
:1031F00080F83C4020466B60CBE70120C9E700BF68
:1032000090F83D30202B01D002207047282203681F
:1032100080F83D201A68D20703D41A6842F00102F0
:103220001A601A6842F480621A605A6842F4407266
:103230005A600020704700BF90F83D30282B01D025
:103240000220704790F83D3090F83E10026803F07D
:10325000030310B4194320240023016380F83D4088
:1032600080F83E3011685DF8044B21F480611160F4
:10327000516821F44071184651607047F0B583B031
:103280000024019490F83D40202C02D0022003B08D
:10329000F0BD3B4C3B4D2468E408A5FB0454240AD4
:1032A00004EB840404EB8404019403E00468A5693E
:1032B000AE070CD5019C651E0195002CF6D120238C
:1032C000046380F83C4080F83D300320DFE790F84D
:1032D0003C50012DDAD025680126ED0780F83C60CE
:1032E00002D42568354325602568274E25F40065FE
:1032F00025604FF0210E1027002580F83DE080F872
:103300003E7005644385C662438D42629BB203856D
:1033100041647BB9226842F480622260226842F4F0
:1033200080722260626880F83C3042F4E0621846A5
:103330006260ACE70646406BDFF854E0134F05646B
:103340001146456404F1100285640565C0F83CE04F
:10335000C764FDF71BFB33681A6842F480621A6089
:103360001A6842F480721A605A6886F83C5042F437
:1033700040725A605A6842F4006228465A6086E7F2
:103380000C00002089B5F8140000FFFFD93F0008A9
:103390000D400008F0B583B00024019490F83D4042
:1033A000202C02D0022003B0F0BD3B4C3B4D2468E2
:1033B000E408A5FB0454240A04EB840404EB84040D
:1033C000019403E00468A569AE070CD5019C651E55
:1033D0000195002CF6D12023046380F83C4080F84E
:1033E0003D300320DFE790F83C50012DDAD025680E
:1033F0000126ED0780F83C6002D42568354325603E
:103400002568274E25F4006525604FF0220E102711
:10341000002580F83DE080F83E7005644385C66273
:10342000438D42629BB2038541647BB9226842F4BA
:1034300080622260226842F480722260626880F8B2
:103440003C3042F4E06218466260ACE70646806BAE
:10345000DFF854E0134F056404F1100145648564FE
:103460000565C0F83CE0C764FDF790FA33681A6858
:1034700042F480621A601A6842F480721A605A68D4
:1034800086F83C5042F440725A605A6842F4006236
:1034900028465A6087E700BF0C00002089B5F81461
:1034A0000000FFFFD93F00080D400008F0B583B0D1
:1034B0000023019390F83D30202B02D0022003B06E
:1034C000F0BDF1B1EAB1304B304C1B68DB08A4FB16
:1034D00003431B0A03EB830303EB8303019303E022
:1034E00003689C69A5070ED5019B5C1E0194002B07
:1034F000F6D12022036380F83C3080F83D20032081
:10350000DDE70120DBE790F83C40012CD6D01C68B9
:103510000125E40780F83C5002D41C682C431C6051
:103520001C681B4F1B4E054696461A4624F4006441
:103530002123406B42F8104B85F83D3000242023B6
:1035400085F83E302C64A5F82AE0EF626B8D124FAF
:1035500069629BB22B850464446484640465C66319
:10356000C764FDF713FA2B681A6842F480621A6088
:103570005A6885F83C4042F440725A605A6842F4F6
:10358000006220465A609AE70C00002089B5F814C2
:103590000000FFFF0D400008D93F0008F0B583B0E0
:1035A0000023019390F83D30202B02D0022003B07D
:1035B000F0BDF1B1EAB1314B314C1B68DB08A4FB23
:1035C00003431B0A03EB830303EB8303019303E031
:1035D00003689C69A5070ED5019B5C1E0194002B16
:1035E000F6D12022036380F83C3080F83D20032090
:1035F000DDE70120DBE790F83C40012CD6D01C68C9
:103600000125E40780F83C5002D41C682C431C6060
:103610001C681C4F1C4E054696460A46194624F463
:1036200000642223806B41F8104B85F83D30002464
:10363000202385F83E302C64A5F82AE0EF626B8DDC
:10364000124F6A629BB22B850464446484640465EF
:10365000C663C764FDF79AF92B681A6842F4806262
:103660001A605A6885F83C4042F440725A605A68C1
:1036700042F4006220465A6099E700BF0C00002027
:1036800089B5F8140000FFFF0D400008D93F00087D
:103690002DE9F047044682B098460E461746BDF81D
:1036A0002C90FCF769FE94F83D30202B03D00220CB
:1036B00002B0BDE8F0870546009019230122404979
:1036C0002046FEF7ADFC0028F1D194F83C30012BE8
:1036D000EDD023681A680121D20784F83C1002D487
:1036E0001A680A431A601A68364922F400621A609E
:1036F0004FF0000A2122402384F83D2084F83E3018
:10370000C4F840A0A4F82A90E162608D0A9B63622D
:1037100031460C9E01950096434620853A46204648
:10372000FEF740FD002839D1238D0C992A4620460A
:10373000B3B1FEF707FD002837D1626A2168208DFA
:10374000531C636213780B61638D013B9BB26385ED
:103750004E69431E9BB276072385E6D5961C93B926
:103760002A460C992046FEF791FCF0B922681368AE
:10377000202143F40073136084F83D1084F83C006A
:1037800084F83E0094E7666253780B61628D831E75
:10379000013A9BB292B223856285C6E7236C84F816
:1037A0003CA0042B09D0032082E7236C042BFAD120
:1037B0002268136843F400731360012078E700BFA8
:1037C000020010000000FFFF2DE9F047044686B01C
:1037D00098460D461746BDF83C90FCF7CDFD94F891
:1037E0003D30202B04D00225284606B0BDE8F087E6
:1037F00006460090192301227E492046FEF710FC60
:103800000028F0D194F83C30012BECD023681A68E2
:103810000121D00784F83C1002D41A680A431A60C8
:103820001A68754922F400621A604FF0000A2222D9
:10383000402384F83D2084F83E30C4F840A0A4F82A
:103840002A90E162608D0E9B63622946109D00956F
:103850000196434620853A462046FEF7FDFC054684
:1038600038B1236C84F83CA0042B00F0A28003251F
:10387000BAE7238D9BB9236802905A6902929A692C
:103880000292029A1A6842F400721A6000232022FF
:1038900084F83D2084F83C3084F83E30A4E7012BC6
:1038A000226800F08880022B00F094800590516916
:1038B000059192690592059A504F032B4CD8012B24
:1038C00068D0022B0096109B4FF00002394620462C
:1038D0001CD0FEF7A5FB0028C9D12368D4F824E04A
:1038E000196821F4806119601B690EF1010262629E
:1038F0008EF80030638D218D0096013B9BB201391B
:103900006385109B2185024639462046FEF788FBD9
:103910000028ACD12368616A1A6842F400721A6008
:103920001B694A1C62620B70638D218D606A22687C
:10393000013B9BB2638512694B1E411C238561626A
:103940000270238D628D013B013A9BB292B22385B6
:103950006285002BB1D199E7324610992046FEF7D7
:10396000C5FB10BB636A2268591C126961621A7038
:10397000628D2168238D013A92B262854A69013BCA
:103980009BB252072385E4D5636A0A69591C6162B8
:103990001A70D6E7324610992046FEF7A7FB20B9E9
:1039A000636A2268591C1269F1E7236C202B3FF4EB
:1039B0005EAF012518E7116821F480611160039062
:1039C00051690391916903910399116841F4007160
:1039D000116071E7116821F480611160116841F490
:1039E0000061116004905169049192690492049AF3
:1039F00062E700BF020010000000FFFF04000100AA
:103A0000F0B482B00024019490F83D40BDF81C60F1
:103A1000202C03D0022002B0F0BC7047264C274D6A
:103A20002468E408A5FB0454240A04EB840404EB92
:103A30008404019403E00468A569AF070CD5019CD8
:103A4000651E0195002CF6D12023046380F83C40CC
:103A500080F83D300320DEE790F83C50012DD9D0AE
:103A600025680127ED0780F83C7002D425683D43A6
:103A700025602568124F25F400652560212580F812
:103A80003D50402580F83E50002505644685C762BC
:103A900041648264C36405652368069A426243F404
:103AA000807306852360636880F83C5043F4E063CC
:103AB00028466360AFE700BF0C00002089B5F8140A
:103AC0000000FFFFF0B583B00024019490F83D4062
:103AD000BDF82460202C02D0022003B0F0BD2B4C96
:103AE0002B4D2468E408A5FB0454240A04EB840449
:103AF00004EB8404019403E00468A569AF070CD5C6
:103B0000019C651E0195002CF6D12023046380F8EA
:103B10003C4080F83D300320DFE790F83C50012D19
:103B2000DAD025680127ED0780F83C7002D42568BB
:103B30003D4325602568174F25F4006525604FF04B
:103B4000220C00254FF0400E80F83DC080F83EE08A
:103B500005644685C76241648264C3640565236861
:103B6000089A426243F4806306852360236843F425
:103B70008073236080F83C502EB1636843F4E063A7
:103B800028466360A9E73046A7E700BF0C00002085
:103B900089B5F8140000FFFF2DE9F047044684B012
:103BA000002098460E4617460290BDF83450FCF7A8
:103BB000E3FB94F83D30202B03D0022004B0BDE895
:103BC000F0873E4B3E4A1B68DB08A2FB03231B0A1F
:103BD00003EB830303EB83038146029303E0226834
:103BE000936999070CD5029B5A1E0292002BF6D1BD
:103BF0002022236384F83C3084F83D200320DDE755
:103C000094F83C30012BD8D013680121DB0784F8ED
:103C10003C1002D413680B4313601368294923F442
:103C20000063136021204FF0400E0C9B84F83D0090
:103C30004FF0000A84F83EE06362C4F840A0258596
:103C40006585E1620DB92846B8E7606BDFF87CE076
:103C50001D49C1642B4610320C99C0F840A0C0F831
:103C600044A0C0F848A0C0F850A0C0F83CE0FCF761
:103C70008DFE23200090CDF8049043463A4631460D
:103C80002046FEF78FFA38B1236C84F83CA0042B51
:103C90000CBF0120032091E7236803905A69039227
:103CA0009A690392039A5A6884F83C0042F480723D
:103CB0005A605A6842F400625A607FE70C000020A4
:103CC00089B5F8140000FFFFD93F00080D40000837
:103CD0002DE9F043044687B0002098460E4617466B
:103CE0000390BDF83C50FCF747FB94F83D30202B87
:103CF00003D0022007B0BDE8F083504B504A1B6848
:103D0000DB08A2FB03231B0A03EB830303EB830300
:103D10008146039303E021688B699A070CD5039BC6
:103D20005A1E0392002BF6D12022236384F83C30E4
:103D300084F83D200320DDE794F83C30012BD8D0F7
:103D40000B680122DB0784F83C2002D40B68134384
:103D50000B600B683B4823F4006322220B6084F85D
:103D60003D204023002284F83E3022646585E062D5
:103D7000638D0E9860629BB22385002B33D0A06BBD
:103D8000DFF8C8E002644264826402652E4AC264BD
:103D900010310E9AC0F83CE0FCF7F8FD23200090AB
:103DA000CDF8049043463A4631462046FEF754FA91
:103DB000002834D1012D23683BD05A6842F4805248
:103DC0005A60002104915A6904929A690492049AF3
:103DD0005A6884F83C1042F480725A605A6842F47F
:103DE00000625A6086E723200090CDF80490434695
:103DF0003A4631462046FEF72FFA80B923680590EF
:103E00005A6905929A690592059A1A68202142F426
:103E100000721A6084F83C0084F83D106AE7236C55
:103E2000042B4FF0000384F83C300CBF012003202A
:103E300060E71A6822F480621A60C2E70C00002072
:103E400089B5F8140000FFFFD93F00080D400008B5
:103E50002DE9F04F044685B01D460F469046FCF70D
:103E60008BFA94F83D30202B03D0022005B0BDE83A
:103E7000F08F06460090192301224C492046FEF798
:103E8000CFF80028F1D194F83C30012BEDD0226816
:103E900013680121DB0784F83C1002D413680B433C
:103EA000136013684249DFF804A123F40063136030
:103EB000242384F83D300023236407F0FE0799464D
:103EC000E162136843F4807313604FF001112B46D5
:103ED000009600222046FEF7A3F8002846D123686A
:103EE0001F61FCF749FA226806465069536994F845
:103EF0003D10800703F48063C9B213D493B9A0299D
:103F000010D04FF0A00B55BB84F83DB050695369F9
:103F100094F83D10800703F48063C9B202D40BB952
:103F2000A029F0D14FF0200B84F83DB0536913F075
:103F3000020F13681CD16FF4806143F400731360A7
:103F4000204651611923012200965146FEF768F878
:103F500060B909F10109C14522D22268B1E7FCF735
:103F60000BFA801B85422268CED3CFE703207DE782
:103F700043F4007300201360039053690393936923
:103F800003930A490096192301222046039DFEF758
:103F900047F80028EAD184F83DB084F83C0065E792
:103FA00084F83C0084F83DB001205FE70200100077
:103FB0000000FFFF704700BF704700BF704700BFA1
:103FC000704700BF704700BF704700BF704700BF19
:103FD000704700BF704700BF10B5846BFCF748FF07
:103FE000022812D021680B68002223F4806320206D
:103FF0000B60628584F83D0084F83E20236C43F01A
:10400000100323642046FFF7E5FF10BD806B08B561
:1040100090F83D3090F83E20DBB2212B25D0222BAA
:1040200020D003681A6822F480621A601A6842F489
:1040300000721A605A6822F480525A605A6800214D
:1040400022F400625A604185036CEBB9202280F8AB
:104050003D2090F83E2080F83E30402A11D008F0F4
:10406000A5FE08BDD2B2202ADBD103685A68002120
:1040700022F400625A6041855A6842F440725A60E4
:1040800008BD08F0A5FE08BDFFF7A4FF08BD00BFEE
:10409000704700BF38B590F83D30293B012B0446EE
:1040A0004DD990F83D30602B036805D05A6815054E
:1040B0005CBF202280F83D200022226384F83E204D
:1040C0001A6822F400621A605A6812F4006213D06F
:1040D0005A68606B22F400625A6090F83530012B08
:1040E00034D0394B0365FCF7DBFC00285FD194F832
:1040F0003D30282B13D038BD94F83D10602941D0B5
:104100005A69520604D5626A1B69511C61621370B8
:104110002046FFF75FFF94F83D30282BEBD1236C4E
:104120005B07E8D5294BE362202200232363204666
:1041300084F83D2084F83E30FFF746FF38BD002369
:1041400028220363036880F83D20B9E7A06B1E4B6B
:104150000365FCF7A5FC0028C9D023685A695006FE
:1041600005D5626A1B69511C6162137023681A6865
:10417000A06B22F0010220211A60036D84F83D102B
:104180009847B4E7202184F83D1022645A6951060B
:1041900005D5626A1B69511C6162137023681A6835
:1041A00022F001021A602046FFF772FF9FE72268A3
:1041B000606B1368016D23F001032025136084F800
:1041C0003D50884793E700BF414B00080000FFFFC8
:1041D00090F83E20102A01D00120704790F83C2032
:1041E000012A01D10220704710B502680024602125
:1041F000046380F83D10116821F48061116011683A
:1042000041F4007111604485516821F4E06151600E
:1042100080F83C40FFF73EFF204610BDF0B5036834
:1042200004469D695969586894F83E20D2B2102A14
:104230008DB000F08F80402A00F08C808D4A0A40BB
:104240001AB3820500F1E9818B4A2A40002A00F066
:10425000F9808A4A0A40002A40F09A81884A0A4036
:10426000002A00F0D480860540F1D180628D92B2A0
:10427000002A00F0CC80626A511C616212781A61D7
:10428000638D013B9BB26385C1E07E4F0F40002FE1
:10429000DAD08605D8D594F83D00596821F4E0615C
:1042A00059600B925A690B92196841F0010119602B
:1042B0000B9A196821F4806119605968C2B2080527
:1042C0001E460ED594F83D10222900F03E8294F847
:1042D0003D102A2900F03982616B0968496889B26A
:1042E0006185618D89B2E1B15969490709D5616A72
:1042F0001B69481C60620B70638D2668013B9BB292
:10430000638573695B0608D5636A3169581C60620E
:104310001970638D013B9BB26385236C43F00403EA
:104320002364236C002B40F01682A2F1280102299D
:1043300040F2D581236B222B01D0222A67D10023A2
:1043400020222363204684F83D2084F83E30FFF786
:1043500037FE5CE011F0011F43D0860500F1468175
:10436000494A0A40002A54D0434A2A40002A44D0ED
:10437000424A0A40002A00F08B80470540F18880BD
:104380003F4A0A40002A40F0878094F83D20258D5E
:1043900094F83E10E06AD2B2C9B2002D40F0FD811F
:1043A000212A00F04A82402931D1222A2FD1628D60
:1043B00092B2002A00F0618294F83E20402A7FF4F5
:1043C0005AAF226D002A40F0DA82E26C012AA26C18
:1043D00000F0F582C2F307221A61236D01332365D1
:1043E00015E0294A0A40A2B18205BDD5626CD2B25D
:1043F0001A61214A2A40002ABAD1244A0A40002AD6
:1044000076D11F4A0A4012B1810500F120810DB01A
:10441000F0BD184A0A40002AA6D08705A4D594F812
:104420003E20E76AD4F830E094F83D60222ED2B204
:1044300000F06E8100220A925A690A929A690A92E1
:104440000A9A91E7114A0A40002A74D10C4A0A409C
:10445000002ADCD08205DAD5628D92B2002AD6D04D
:10446000626A1B69511C61621370638D013B9BB2D0
:104470006385CCE702000100040010008000010009
:1044800004000100100001000800010040000100CC
:104490009D4A0A40002ABAD08605B8D5E16A94F848
:1044A0003D20212AB3D1628D92B2002A7FF4E3AE7F
:1044B000042905D0082903D011F5803F40F0B081D0
:1044C0005A6822F4E0625A601A680021202042F4FF
:1044D00000721A60216384F83D0094F83E3084F83D
:1044E0003E10402B204600F0C58108F06DFC8EE7A1
:1044F000450586D5844A0A40002A85D194F83D10A6
:10450000222984D1618D89B2032940F26681626AD1
:104510001B69511C61621370638D013B9BB2638503
:10452000638D9BB2032B7FF472AF2268536823F430
:10453000806353606BE7450588D5734A0A40002ABB
:1045400088D194F83D10628D92B2C9B2002A3FF42E
:104550005EAF626A1B69501C60621370638D013B21
:104560009BB26385638D9BB2002B7FF450AF2A29E9
:104570007FF44DAF22685368222523F480632821FD
:1045800053602046256384F83D10FFF719FD3EE790
:1045900047057FF563AE5C4A0A40002A7FF463AEAC
:1045A00094F83D10628D92B2C9B2002A3FF42FAF49
:1045B000626A501C606212781A61628D013A92B28E
:1045C0006285628D92B2002A7FF421AF29297FF49F
:1045D0001EAF5A68212522F4806228215A602046A5
:1045E000256384F83D10FFF7E9FC10E794F83E20BE
:1045F000402A6CD02269B2F5804F1CD0226D002A6F
:1046000079D0226D012A7FF4AFAE626CD21102F034
:10461000060242F0F1021A61A6E699699B6981F0EF
:1046200004011F06C1F3800154BFA289228B2046DA
:10463000FFF7C8FCEBE694F83D20212A626C16BF18
:1046400042F0010202F0FE02D2B21A618CE6E16A87
:10465000628D92B2042A00F08880628D92B2032AA1
:1046600000F09180628D92B2022A7FF4F9AE013996
:1046700001291A6840F2CC8042F400721A60626A22
:104680001B69511C61621370638D626A2168013B72
:104690009BB263850B69511C61621370638D216845
:1046A000013B9BB263854B68202023F440734B6031
:1046B000002284F83D00226394F83E3084F83E20C6
:1046C000402B204600F0A18008F070FB9FE6226D91
:1046D000002A44D1626C02F0FE021A6144E60B4AE1
:1046E000E26220222363204684F83D2084F83E3095
:1046F000FFF76AFC8BE6626CD21102F0060242F010
:10470000F0021A6130E600BF040001000000FFFF64
:10471000266D16B9402A00F0D080266D26B9226990
:10472000B2F5404F00F0D080628D92B2002A38D1AD
:1047300003925A6903929A690392039A1A6842F49F
:1047400000721A60002222650EE6A16B09684968B2
:1047500089B26185C5E52046FFF79CFC57E6626C8F
:1047600042F00102D2B21A61FEE55A68616A22F48F
:1047700080625A601B694A1C62620B70638D013B48
:104780009BB2638543E65A68616A22F480625A608C
:104790001A6822F480621A60ECE7212A7FF403AEE3
:1047A00005E6628D92B2012A6CD0628D92B2022A25
:1047B00000F098801A6842F480621A605A68120504
:1047C00003D55A6842F480525A60002209925A690D
:1047D00009929A690992099AB4E701293FF617AE3E
:1047E0001968606A21F480611960596821F4E061F8
:1047F00059601B69411C61620370638D013B9BB270
:104800002021638584F83D1055E708F0E1FAFEE5C4
:1048100022F480621A601A6842F480721A602EE7ED
:104820005968112621F4E06120255960204626634D
:1048300084F83E2084F83D5057E6042805D0082827
:1048400003D010F5803F40F08B805A6822F4E0627C
:104850005A6019680022202041F400711960226317
:1048600084F83D0094F83E3084F83E20402B2046EA
:104870007FF43BAE08F0AAFAC9E55A6822F48062D8
:104880005A60C4E517F5803F56D0042F44D0082F56
:1048900042D0BEF1120F3FD0E26A022A1A6814BF5A
:1048A00022F4806242F480621A60002206925A6901
:1048B00006929A690692069A44E701965A6901920D
:1048C0009A690192019A4FE502965A6902929A6991
:1048D0000292029A1A6842F480721A60226D0132C2
:1048E000226541E5E26A022A1A6859D022F4806200
:1048F0001A601A6842F400621A605A68160503D5F5
:104900005A6842F480525A60002208925A6908920A
:104910009A690892089A15E71A68002622F48062BC
:104920001A6007965A6907929A690792079A1A6855
:1049300042F400721A6005E71A6822F480621A6075
:104940005A6812F400622FD01A68002622F480629E
:104950001A6004965A6904929A690492049AF1E6DC
:104960005A68112622F4E06220215A60204626630C
:1049700084F83E5084F83D1008F026FA47E5226D91
:10498000012A22D0226D022A7FF441AD94F83D2005
:10499000222A21D094F83D20212A7FF438AD6AE400
:1049A00042F480621A60A8E705925A6905929A69F2
:1049B0000592059A1A6842F400721A60C2E6D2B2F1
:1049C0001A61236D0233236521E5A26CD2B21A610C
:1049D000236D013323651AE51A6842F480721A6068
:1049E00015E500BF0368544970B55D695A680D420A
:1049F000044624D0D60522D5016C15F4813F6FF40E
:104A0000807041F001012164586147D0216C6FF43E
:104A1000007041F0020115F4823F2164586123D1F6
:104A200015F4843F08D0D20506D5226C6FF40061DE
:104A300042F0080222645961236C5BB970BD15F421
:104A4000813F0CD0D005E1D415F4823FE8D0236C2F
:104A5000002BF3D02046BDE87040FFF71BBB15F4D8
:104A6000823FDDD0D105E7D594F83E00628D94F801
:104A70003D10266B202892B2C9B213D0226C42F0AE
:104A80000402226494F83E20102A36D06FF480622B
:104A90005A6115F4843FCFD02368C6E715F4823FEE
:104AA000E2D1BDE7002AE9D101F0F702212A03D0C3
:104AB0002829E3D1212EE1D194F83D20E16A04298F
:104AC000D2B21FD008291DD0212ADFD11B49E162B3
:104AD00020200021226384F83D0084F83E105A68AB
:104AE0006FF4806122F4E0625A6059611A680A40EA
:104AF0001A602046FFF762FACBE71A6842F40072A8
:104B00001A60C3E7282ADFD10C4AE2625A686FF4C0
:104B1000806122F4E0625A6059611A68002122F42F
:104B2000806220261A602046216384F83D6084F864
:104B30003E10FFF749FAACE7000101000000FFFF5B
:104B4000806B0268116838B521F480610023456BE1
:104B5000846B1160438590F83D102B6560294FF000
:104B60002001236580F83D1080F83E3006D01368A0
:104B700023F001031360FFF72DFA38BD03641368B7
:104B800023F001031360FFF783FA38BD90F83D006E
:104B9000704700BF90F83E00704700BF006C704740
:104BA00090F83D30DBB2202B01D002207047024646
:104BB00010B40068242482F83D40046824F0010405
:104BC0000460446A24F010044462446A2143416250
:104BD00001685DF8044B41F001010160002082F89A
:104BE0003D30704790F83D30DBB2202B01D00220E1
:104BF0007047024630B42420146882F83D002068D3
:104C000020F001002060656A4FF6F07028400843EC
:104C100080B26062216841F001012160002082F8C9
:104C20003D3030BC704700BF044B1A6A42F08052DE
:104C30001A621A6A22F080521A62704700380240E3
:104C4000014B01221A60704720000E42014B0022E6
:104C50001A60704720000E421B491C4B0A6810B4B2
:104C6000046822F0E00222430A605A6822F480328B
:104C70005A601A6822F480321A609A6822F48032EC
:104C80009A60DA6822F48032DA604268D40303D58D
:104C9000196841F480311960900304D50B494B68C1
:104CA00043F480334B60D10704D508498B6843F443
:104CB00080338B60930704D5044AD36843F4803370
:104CC000D3605DF8044B704700700040003C014029
:104CD000014B01221A60704710000E42014B002266
:104CE0001A60704710000E42024A53681843506021
:104CF000704700BF00700040024A536823EA00007A
:104D00005060704700700040064A1369012923F083
:104D10000403136103D040BF20BF20BF704730BFE2
:104D2000704700BF00ED00E010B40D4C0D4A236841
:104D300023F00303184320601369012943F004039F
:104D400013610AD040BF20BF20BF064A5DF8044B64
:104D5000136923F004031361704730BFF5E700BF08
:104D60000070004000ED00E00549064A0B6843F082
:104D700002030B60136943F00403136130BF7047F3
:104D80000070004000ED00E0704700BF10B5054C1A
:104D90006369DB0304D5FFF7F7FF4FF480336361EA
:104DA00010BD00BF003C0140024A136943F00203FA
:104DB0001361704700ED00E0024A136923F002031B
:104DC0001361704700ED00E0024A136943F01003DD
:104DD0001361704700ED00E0024A136923F01003ED
:104DE0001361704700ED00E038B50A4B0A4C012210
:104DF0001A60FBF7C1FA054605E0FBF7BDFA401B58
:104E0000B0F57A7F04D863681B07F6D5002038BD5B
:104E1000032038BDA4000E420070004038B50A4B94
:104E20000A4C00221A60FBF7A7FA054605E0FBF7DB
:104E3000A3FA401BB0F57A7F04D8606810F0080030
:104E4000F5D138BD032038BDA4000E4200700040EB
:104E5000014B01221A60704724000E42014B0022D0
:104E60001A60704724000E42024B186800F440405C
:104E7000704700BF0070004070B582B0294C00221E
:104E80000092236C43F080532364236C03F080531F
:104E90000093009BA36803F00C03082B3ED0224B29
:104EA0001A600646FBF768FA054604E0FBF764FA69
:104EB000401B02282FD8236813F00073F6D11B4A39
:104EC000019313681849174C23F440431E4316609E
:104ED000136803F4404301930123019A0B60FBF72D
:104EE0004BFA054604E0FBF747FA401B022812D8AC
:104EF00023689A01F7D5FBF73FFA0C4C054605E00D
:104F0000FBF73AFA401BB0F57A7F04D863685B047C
:104F1000F6D5002000E0032002B070BD012002B0F1
:104F200070BD00BF00380240600047420070004082
:104F300030B583B0194B1A491A4C002201921A6CF1
:104F400042F080521A641B6C03F0805301930123DA
:104F5000019A0B60FBF710FA054605E0FBF70CFA27
:104F6000401BB0F57A7F16D86368DA03F6D50E4B8E
:104F70000C4C01221A60FBF7FFF9054605E0FBF730
:104F8000FBF9401BB0F57A7F05D863689B03F6D523
:104F9000002003B030BD032003B030BD0038024014
:104FA00040000E420070004044000E4230B583B015
:104FB0000021194B01911A6C1848194C42F080528B
:104FC0001A641B6C03F080530193019B0160FBF793
:104FD000D3F9054605E0FBF7CFF9401BB0F57A7F22
:104FE00016D8636813F40033F5D10E4A0C4C1360E5
:104FF000FBF7C2F9054605E0FBF7BEF9401BB0F52B
:105000007A7F05D8606810F48030F5D103B030BDE8
:10501000032003B030BD00BF0038024044000E4200
:105020000070004040000E4230B482B0174B184C64
:10503000002201921D6C174A45F080551D641B6CBF
:1050400003F080530193019B536843F44023536062
:10505000136843F440231360136823F4406323F080
:105060000303184310602369012943F004032361FB
:1050700009D020BF064A1369002023F004031361FE
:1050800002B030BC704730BFF4E700BF00380240C8
:1050900000ED00E00070004000207047002800F0A4
:1050A000B2812DE9F0410368DD0782B004462FD5B7
:1050B000AB498A6802F00C02042A00F023818A6856
:1050C00002F00C02082A00F019816368B3F5803FF2
:1050D00000F05A81B3F5A02F00F0E580A04D2A68BA
:1050E00022F480322A602A6822F480222A60002B6F
:1050F00040F0E280FBF740F9064605E0FBF73CF99B
:10510000801B642800F2F6802B689B03F6D423688A
:105110009F0728D5924A916811F00C0F00F09080FB
:10512000916801F00C01082900F08680E368002BEB
:1051300000F00F818B4B8A4D01221A60FBF71CF99E
:10514000064605E0FBF718F9801B022800F2D28022
:105150002B689807F6D52B68226923F0F80343EAF9
:10516000C2032B6023681A0752D4580730D57C4AF3
:10517000136C13F080537ED000267B4D2B68D9052D
:1051800040F1A880A368012B00F00481052B00F0FA
:10519000C380734D2A6F22F001022A672A6F22F022
:1051A00004022A67002B40F0C080FBF7E5F841F2CB
:1051B0008837804606E0FBF7DFF8A0EB0800B8422E
:1051C00000F298802B6F9807F5D4002E40F0E8800D
:1051D000A369CBB1624DAA6802F00C02082A36D04E
:1051E000022B624B4FF000021A6000F0DF80FBF7E9
:1051F000C3F82C46054604E0FBF7BEF8401B022826
:1052000078D823689B01F7D4002002B0BDE8F08174
:10521000636903B3564B524D01221A60FBF7ACF899
:10522000064604E0FBF7A8F8801B022862D86B6FE3
:105230009B07F7D5236898E7526856023FF576AF8B
:10524000474A1268950722D5E268012A1FD001203B
:1052500002B0BDE8F081464A414D1360FBF78CF87F
:10526000064604E0FBF788F8801B022842D86B6FE3
:105270009F07F7D4DEE70193136C43F08053136468
:10528000136C03F080530193019B012675E73449A9
:1052900020690A6822F0F80242EAC0020A601A078E
:1052A0007FF563AFB4E72E4B1A6842F480221A6090
:1052B0001A6842F480321A60FBF75EF8284D064601
:1052C00004E0FBF759F8801B642813D82B689A0375
:1052D000F7D51CE72B6843F480732B60FBF74CF881
:1052E00007462B68DA053FF54DAFFBF745F8C01BC5
:1052F0000228F6D9032002B0BDE8F0814A685002C6
:105300007FF5E3AE164A126891037FF501AF62683C
:10531000002A7FF4FDAE9AE7114B1A6F42F00402A7
:105320001A671A6F42F001021A67FBF725F80C4D55
:10533000804641F2883705E0FBF71EF8A0EB080035
:10534000B842D7D82B6F9B07F6D5002E3FF440AF5D
:1053500026E0044A024D1360FBF70EF806460EE005
:1053600000380240000047420070004060004742A1
:10537000800E4742FBF700F8801B0228BAD82B6842
:105380009907F7D42368EEE6204A136843F4803384
:10539000136091E71D4A136F43F001031367C4E7DD
:1053A0001A4A136C23F08053136411E7FAF7E4FFF1
:1053B000064604E0FAF7E0FF801B02289AD82B6823
:1053C0009901F7D4E369276A666AA26AE06A10491C
:1053D0000E4C3B4343EA8613520843EA0063013A0A
:1053E00043EA024301226B600A60FAF7C5FF0546F3
:1053F00005E0FAF7C1FF401B02283FF67BAF2368A8
:105400009A01F6D500E70120704700BF003802403E
:1054100060004742F0B50C4689B0164610B3234DE4
:105420002348002302932A6B42F004022A63296B6B
:10543000059301F0040102914FF4007E03220299CA
:105440000692022703A90793CDF80CE00497FCF716
:1054500085FBAA6844EAC60422F078421443AC6093
:1054600009B0F0BD114D01902A6B42F001022A6390
:105470002A6B02F00102019203464FF4807E032260
:1054800001990C480593022703A907930692CDF8CA
:105490000CE00497FCF762FBAB6823F0EC6343EA93
:1054A00006021443AC6009B0F0BD00BF00380240F2
:1054B0000008024000000240014B01221A607047C0
:1054C0004C004742014B00221A6070474C00474293
:1054D000174908B58B6803F00C03042B1BD0082B6D
:1054E00017D14A684B6813F4800302F03F0214D1CD
:1054F00049681048C1F38811A1FB000108F022FBA4
:105500000B4B5B68C3F3014301335B00B0FBF3F06B
:1055100008BD084808BD084808BD4B680648C3F3E5
:105520008813A3FB0001002308F00CFBE8E700BF91
:10553000003802400024F40040787D0160B1484A00
:10554000136803F00F038B4208D2CBB213701368B9
:1055500003F00F03994201D00120704703682DE941
:10556000F0419D0714D55C0704D53E4CA26842F477
:10557000E052A2601A0704D53A4CA26842F4604295
:10558000A260384C8568A26822F0F0022A43A2602B
:10559000DF0704460D4622D54268012A5BD0931EE0
:1055A000012B304B1B6850D9990725D52D4EB36878
:1055B00023F003031343B360FAF7DEFE41F28837AA
:1055C000804605E0FAF7D8FEA0EB0800B8423FD8C5
:1055D000B368626803F00C03B3EB820FF2D1204A88
:1055E000136803F00F039D4209D2EBB213701368E6
:1055F00003F00F039D4202D00120BDE8F081236833
:105600005A0706D51749E0688A6822F4E052024337
:105610008A601B0707D5134A2169936823F4604306
:1056200043EAC1039360FFF753FF0E4B0E499B689B
:105630000E4AC3F30313CB5C20FA03F3002013607C
:10564000FAF752FE0020BDE8F0819801AED4D3E70E
:105650000320BDE8F081034B1B689E03A6D4CBE773
:10566000003C024000380240E06C02080C000020C0
:10567000014B1868704700BF0C000020044B054A1E
:105680009B680549C3F382230868D35CD840704700
:1056900000380240F06C02080C000020044B054A60
:1056A0009B680549C3F342330868D35CD840704710
:1056B00000380240F06C02080C0000200F22274B3B
:1056C00002601A6852033AD54FF4A0234360234B7B
:1056D000224A1B6813F0010318BF0123C36013683B
:1056E000C3F3C4030361136F590730D505238360E7
:1056F0001A4B1A4A5B6F13F0010318BF0123436171
:10570000164B1B68DB014CBF0223012383615368E6
:1057100003F48003C361536803F03F0303625368DB
:10572000C3F388134362536803F4403303F58033B3
:10573000DB0B83625368C3F30363C36270471B6868
:1057400013F4803318BF4FF480334360BFE7136F07
:1057500013F0010318BF01238360C9E7003802403A
:105760000E4B0F2202609A6802F0030242609A68B0
:1057700002F0F00282609A6802F4E052C2609B6814
:10578000DB0810B403F4E053054C036123685DF8B3
:10579000044B03F00F030B60704700BF003802405A
:1057A000003C0240704700BF08B5054BDB681B0694
:1057B00004D5FFF7F7FF034B80221A7008BD00BF26
:1057C000003802400E380240F0B5044600688507F4
:1057D00083B00FD110F00C0F62D1850600F1B280BA
:1057E00010F0100004D0804B94F82C201A60002098
:1057F00003B0F0BD7D4B7E4D00221A60FAF7BCFD70
:10580000064604E0FAF7B8FD801B022845D82B684D
:105810001901F7D42368DA0706D5A2686168120770
:1058200042EA8112C5F884209B0715D5704AE368C7
:10583000D2F8841060681B0601F0E04143EA80134F
:105840000B43C2F88430D2F88C10E36921F01F01B9
:10585000013B0B43C2F88C30644B654D01221A604A
:10586000FAF78AFD064604E0FAF786FD801B022857
:1058700013D82B681F01F7D52068ABE71546FAF758
:105880007BFD41F2883607462B6F9B0700F18E8027
:10589000FAF772FDC01BB042F6D9032003B0F0BD89
:1058A000544B534D00221A60FAF766FD064604E099
:1058B000FAF762FD801B0228EFD82B689800F7D416
:1058C0002268510715D56369D5F8881020691B0631
:1058D00001F0E04143EA80130B43C5F88830D5F866
:1058E0008C30216A23F4F853013943EA0123C5F8C7
:1058F0008C30130714D53E4AA369D2F8881020696A
:105900001B0701F0706143EA80130B43C2F8883033
:10591000D2F88C30616A23F440330B43C2F88C30E8
:10592000344B334D01221A60FAF726FD064604E097
:10593000FAF722FD801B0228AFD82B689F00F7D50D
:1059400020684AE72A4B2C4D002201921A6C42F043
:1059500080521A641B6C03F080530193019B2B68E7
:1059600043F480732B60FAF707FD064604E0FAF76C
:1059700003FD801B022890D82B68D805F7D51C4A58
:10598000A36A116F11F4407103F4407011D0814289
:105990000FD0136F194923F44073012500200D60C7
:1059A00008601367136FD9073FF568AFA36A03F464
:1059B0004070B0F5407F0CD00D498A6822F4F8128F
:1059C0008A600B4A116FC3F30B030B431367206804
:1059D00006E70748826823F0704122F4F81221F4A8
:1059E00040710A438260ECE7E01147426800474299
:1059F000003802407000474200700040400E4742AD
:105A0000204B3F220260D3F88420C2F38812426008
:105A1000D3F88420C2F302728260D3F88420C2F3E8
:105A20000362C260D3F88820C2F388120261D3F8FF
:105A30008820C2F302728261D3F88820C2F3036225
:105A40004261D3F88C2002F01F02C261D3F88C208F
:105A5000C2F304220262D3F88C2002F44032426284
:105A60009A68196F02F4F81201F440710A438262D5
:105A7000D3F88C3013F0807318BF012380F82C30DA
:105A8000704700BF00380240012822D1124A9368B3
:105A900013F4000304D0012B104818BF00207047F6
:105AA000536813F4800F536814BF0D480D4803F07A
:105AB0003F03B0FBF3F0084BD3F88420D3F88430D5
:105AC000C2F3881200FB02F0C3F30273B0FBF3F0E1
:105AD00070470020704700BF003802400080BB00C4
:105AE00040787D010024F400174B002270B51A6045
